{
	"_format": "hh-sol-artifact-1",
	"contractName": "EternalNFT",
	"sourceName": "contracts/EternalNFT.sol",
	"abi": [
		{
			"inputs": [],
			"stateMutability": "nonpayable",
			"type": "constructor"
		},
		{
			"anonymous": false,
			"inputs": [
				{
					"indexed": true,
					"internalType": "address",
					"name": "owner",
					"type": "address"
				},
				{
					"indexed": true,
					"internalType": "address",
					"name": "approved",
					"type": "address"
				},
				{
					"indexed": true,
					"internalType": "uint256",
					"name": "tokenId",
					"type": "uint256"
				}
			],
			"name": "Approval",
			"type": "event"
		},
		{
			"anonymous": false,
			"inputs": [
				{
					"indexed": true,
					"internalType": "address",
					"name": "owner",
					"type": "address"
				},
				{
					"indexed": true,
					"internalType": "address",
					"name": "operator",
					"type": "address"
				},
				{
					"indexed": false,
					"internalType": "bool",
					"name": "approved",
					"type": "bool"
				}
			],
			"name": "ApprovalForAll",
			"type": "event"
		},
		{
			"anonymous": false,
			"inputs": [
				{
					"indexed": false,
					"internalType": "address",
					"name": "userAddress",
					"type": "address"
				},
				{
					"indexed": false,
					"internalType": "address payable",
					"name": "relayerAddress",
					"type": "address"
				},
				{
					"indexed": false,
					"internalType": "bytes",
					"name": "functionSignature",
					"type": "bytes"
				}
			],
			"name": "MetaTransactionExecuted",
			"type": "event"
		},
		{
			"anonymous": false,
			"inputs": [
				{
					"indexed": true,
					"internalType": "address",
					"name": "from",
					"type": "address"
				},
				{
					"indexed": true,
					"internalType": "address",
					"name": "to",
					"type": "address"
				},
				{
					"indexed": true,
					"internalType": "uint256",
					"name": "tokenId",
					"type": "uint256"
				}
			],
			"name": "Transfer",
			"type": "event"
		},
		{
			"inputs": [
				{
					"internalType": "address",
					"name": "to",
					"type": "address"
				},
				{
					"internalType": "uint256",
					"name": "tokenId",
					"type": "uint256"
				}
			],
			"name": "approve",
			"outputs": [],
			"stateMutability": "nonpayable",
			"type": "function"
		},
		{
			"inputs": [
				{
					"internalType": "address",
					"name": "owner",
					"type": "address"
				}
			],
			"name": "balanceOf",
			"outputs": [
				{
					"internalType": "uint256",
					"name": "",
					"type": "uint256"
				}
			],
			"stateMutability": "view",
			"type": "function"
		},
		{
			"inputs": [],
			"name": "collectionName",
			"outputs": [
				{
					"internalType": "string",
					"name": "",
					"type": "string"
				}
			],
			"stateMutability": "view",
			"type": "function"
		},
		{
			"inputs": [],
			"name": "collectionSymbol",
			"outputs": [
				{
					"internalType": "string",
					"name": "",
					"type": "string"
				}
			],
			"stateMutability": "view",
			"type": "function"
		},
		{
			"inputs": [],
			"name": "createEternalNFT",
			"outputs": [
				{
					"internalType": "uint256",
					"name": "",
					"type": "uint256"
				}
			],
			"stateMutability": "nonpayable",
			"type": "function"
		},
		{
			"inputs": [
				{
					"internalType": "address",
					"name": "userAddress",
					"type": "address"
				},
				{
					"internalType": "bytes",
					"name": "functionSignature",
					"type": "bytes"
				},
				{
					"internalType": "bytes32",
					"name": "sigR",
					"type": "bytes32"
				},
				{
					"internalType": "bytes32",
					"name": "sigS",
					"type": "bytes32"
				},
				{
					"internalType": "uint8",
					"name": "sigV",
					"type": "uint8"
				}
			],
			"name": "executeMetaTransaction",
			"outputs": [
				{
					"internalType": "bytes",
					"name": "",
					"type": "bytes"
				}
			],
			"stateMutability": "payable",
			"type": "function"
		},
		{
			"inputs": [
				{
					"internalType": "uint256",
					"name": "tokenId",
					"type": "uint256"
				}
			],
			"name": "getApproved",
			"outputs": [
				{
					"internalType": "address",
					"name": "",
					"type": "address"
				}
			],
			"stateMutability": "view",
			"type": "function"
		},
		{
			"inputs": [
				{
					"internalType": "address",
					"name": "user",
					"type": "address"
				}
			],
			"name": "getNonce",
			"outputs": [
				{
					"internalType": "uint256",
					"name": "nonce",
					"type": "uint256"
				}
			],
			"stateMutability": "view",
			"type": "function"
		},
		{
			"inputs": [
				{
					"internalType": "address",
					"name": "owner",
					"type": "address"
				},
				{
					"internalType": "address",
					"name": "operator",
					"type": "address"
				}
			],
			"name": "isApprovedForAll",
			"outputs": [
				{
					"internalType": "bool",
					"name": "",
					"type": "bool"
				}
			],
			"stateMutability": "view",
			"type": "function"
		},
		{
			"inputs": [],
			"name": "name",
			"outputs": [
				{
					"internalType": "string",
					"name": "",
					"type": "string"
				}
			],
			"stateMutability": "view",
			"type": "function"
		},
		{
			"inputs": [
				{
					"internalType": "uint256",
					"name": "tokenId",
					"type": "uint256"
				}
			],
			"name": "ownerOf",
			"outputs": [
				{
					"internalType": "address",
					"name": "",
					"type": "address"
				}
			],
			"stateMutability": "view",
			"type": "function"
		},
		{
			"inputs": [
				{
					"internalType": "uint256",
					"name": "tokenId",
					"type": "uint256"
				}
			],
			"name": "pickFirstWord",
			"outputs": [
				{
					"internalType": "string",
					"name": "",
					"type": "string"
				}
			],
			"stateMutability": "view",
			"type": "function"
		},
		{
			"inputs": [
				{
					"internalType": "uint256",
					"name": "tokenId",
					"type": "uint256"
				}
			],
			"name": "pickSecondWord",
			"outputs": [
				{
					"internalType": "string",
					"name": "",
					"type": "string"
				}
			],
			"stateMutability": "view",
			"type": "function"
		},
		{
			"inputs": [
				{
					"internalType": "uint256",
					"name": "tokenId",
					"type": "uint256"
				}
			],
			"name": "pickThirdWord",
			"outputs": [
				{
					"internalType": "string",
					"name": "",
					"type": "string"
				}
			],
			"stateMutability": "view",
			"type": "function"
		},
		{
			"inputs": [
				{
					"internalType": "address",
					"name": "from",
					"type": "address"
				},
				{
					"internalType": "address",
					"name": "to",
					"type": "address"
				},
				{
					"internalType": "uint256",
					"name": "tokenId",
					"type": "uint256"
				}
			],
			"name": "safeTransferFrom",
			"outputs": [],
			"stateMutability": "nonpayable",
			"type": "function"
		},
		{
			"inputs": [
				{
					"internalType": "address",
					"name": "from",
					"type": "address"
				},
				{
					"internalType": "address",
					"name": "to",
					"type": "address"
				},
				{
					"internalType": "uint256",
					"name": "tokenId",
					"type": "uint256"
				},
				{
					"internalType": "bytes",
					"name": "_data",
					"type": "bytes"
				}
			],
			"name": "safeTransferFrom",
			"outputs": [],
			"stateMutability": "nonpayable",
			"type": "function"
		},
		{
			"inputs": [
				{
					"internalType": "address",
					"name": "operator",
					"type": "address"
				},
				{
					"internalType": "bool",
					"name": "approved",
					"type": "bool"
				}
			],
			"name": "setApprovalForAll",
			"outputs": [],
			"stateMutability": "nonpayable",
			"type": "function"
		},
		{
			"inputs": [
				{
					"internalType": "bytes4",
					"name": "interfaceId",
					"type": "bytes4"
				}
			],
			"name": "supportsInterface",
			"outputs": [
				{
					"internalType": "bool",
					"name": "",
					"type": "bool"
				}
			],
			"stateMutability": "view",
			"type": "function"
		},
		{
			"inputs": [],
			"name": "symbol",
			"outputs": [
				{
					"internalType": "string",
					"name": "",
					"type": "string"
				}
			],
			"stateMutability": "view",
			"type": "function"
		},
		{
			"inputs": [
				{
					"internalType": "uint256",
					"name": "tokenId",
					"type": "uint256"
				}
			],
			"name": "tokenURI",
			"outputs": [
				{
					"internalType": "string",
					"name": "",
					"type": "string"
				}
			],
			"stateMutability": "view",
			"type": "function"
		},
		{
			"inputs": [
				{
					"internalType": "address",
					"name": "from",
					"type": "address"
				},
				{
					"internalType": "address",
					"name": "to",
					"type": "address"
				},
				{
					"internalType": "uint256",
					"name": "tokenId",
					"type": "uint256"
				}
			],
			"name": "transferFrom",
			"outputs": [],
			"stateMutability": "nonpayable",
			"type": "function"
		}
	],
	"bytecode": "0x608060405260405180610160016040528061012f81526020016200520f61012f9139600c9080519060200190620000389291906200088d565b506040518060e001604052806040518060400160405280600481526020017f466972650000000000000000000000000000000000000000000000000000000081525081526020016040518060400160405280600481526020017f57696e640000000000000000000000000000000000000000000000000000000081525081526020016040518060400160405280600481526020017f576176650000000000000000000000000000000000000000000000000000000081525081526020016040518060400160405280600581526020017f456172746800000000000000000000000000000000000000000000000000000081525081526020016040518060400160405280600781526020017f5468756e6465720000000000000000000000000000000000000000000000000081525081526020016040518060400160405280600581526020017f537061636500000000000000000000000000000000000000000000000000000081525081526020016040518060400160405280600481526020017f54696d6500000000000000000000000000000000000000000000000000000000815250815250600d906007620001f19291906200091e565b506040518060e001604052806040518060400160405280600581526020017f53776f726400000000000000000000000000000000000000000000000000000081525081526020016040518060400160405280600581526020017f537065617200000000000000000000000000000000000000000000000000000081525081526020016040518060400160405280600681526020017f536869656c64000000000000000000000000000000000000000000000000000081525081526020016040518060400160405280600681526020017f48616d6d6572000000000000000000000000000000000000000000000000000081525081526020016040518060400160405280600581526020017f536162657200000000000000000000000000000000000000000000000000000081525081526020016040518060400160405280600381526020017f417865000000000000000000000000000000000000000000000000000000000081525081526020016040518060400160405280600381526020017f426f770000000000000000000000000000000000000000000000000000000000815250815250600e906007620003aa9291906200091e565b506040518060e001604052806040518060400160405280600481526020017f4c6f72640000000000000000000000000000000000000000000000000000000081525081526020016040518060400160405280600481526020017f4b696e670000000000000000000000000000000000000000000000000000000081525081526020016040518060400160405280600781526020017f456d7065726f720000000000000000000000000000000000000000000000000081525081526020016040518060400160405280600981526020017f56656e657261626c65000000000000000000000000000000000000000000000081525081526020016040518060400160405280600881526020017f416e636573746f7200000000000000000000000000000000000000000000000081525081526020016040518060400160405280600581526020017f5361696e7400000000000000000000000000000000000000000000000000000081525081526020016040518060400160405280600381526020017f476f640000000000000000000000000000000000000000000000000000000000815250815250600f906007620005639291906200091e565b503480156200057157600080fd5b506040518060400160405280600a81526020017f457465726e616c4e4654000000000000000000000000000000000000000000008152506040518060400160405280600181526020017f310000000000000000000000000000000000000000000000000000000000000081525081816040518060400160405280600a81526020017f457465726e616c4e4654000000000000000000000000000000000000000000008152506040518060400160405280600481526020017f454e4654000000000000000000000000000000000000000000000000000000008152508160009080519060200190620006649291906200088d565b5080600190805190602001906200067d9291906200088d565b5050506040518060800160405280604f8152602001620051c0604f9139805190602001208280519060200120828051906020012030620006c26200075160201b60201c565b60001b604051602001620006db95949392919062000a34565b60405160208183030381529060405280519060200120600781905550505050506200070b6200075960201b60201c565b600a9080519060200190620007229291906200088d565b5062000733620007f360201b60201c565b600b90805190602001906200074a9291906200088d565b5062000b34565b600046905090565b6060600080546200076a9062000acf565b80601f0160208091040260200160405190810160405280929190818152602001828054620007989062000acf565b8015620007e95780601f10620007bd57610100808354040283529160200191620007e9565b820191906000526020600020905b815481529060010190602001808311620007cb57829003601f168201915b5050505050905090565b606060018054620008049062000acf565b80601f0160208091040260200160405190810160405280929190818152602001828054620008329062000acf565b8015620008835780601f10620008575761010080835404028352916020019162000883565b820191906000526020600020905b8154815290600101906020018083116200086557829003601f168201915b5050505050905090565b8280546200089b9062000acf565b90600052602060002090601f016020900481019282620008bf57600085556200090b565b82601f10620008da57805160ff19168380011785556200090b565b828001600101855582156200090b579182015b828111156200090a578251825591602001919060010190620008ed565b5b5090506200091a919062000985565b5090565b82805482825590600052602060002090810192821562000972579160200282015b8281111562000971578251829080519060200190620009609291906200088d565b50916020019190600101906200093f565b5b509050620009819190620009a4565b5090565b5b80821115620009a057600081600090555060010162000986565b5090565b5b80821115620009c85760008181620009be9190620009cc565b50600101620009a5565b5090565b508054620009da9062000acf565b6000825580601f10620009ee575062000a0f565b601f01602090049060005260206000209081019062000a0e919062000985565b5b50565b62000a1d8162000a91565b82525050565b62000a2e8162000aa5565b82525050565b600060a08201905062000a4b600083018862000a23565b62000a5a602083018762000a23565b62000a69604083018662000a23565b62000a78606083018562000a12565b62000a87608083018462000a23565b9695505050505050565b600062000a9e8262000aaf565b9050919050565b6000819050919050565b600073ffffffffffffffffffffffffffffffffffffffff82169050919050565b6000600282049050600182168062000ae857607f821691505b6020821081141562000aff5762000afe62000b05565b5b50919050565b7f4e487b7100000000000000000000000000000000000000000000000000000000600052602260045260246000fd5b61467c8062000b446000396000f3fe60806040526004361061012a5760003560e01c806342842e0e116100ab578063b88d4fde1161006f578063b88d4fde1461041d578063c630338614610446578063c87b56dd14610483578063e2d2c308146104c0578063e5326ab1146104fd578063e985e9c5146105285761012a565b806342842e0e146103265780636352211e1461034f57806370a082311461038c57806395d89b41146103c9578063a22cb465146103f45761012a565b806323b872dd116100f257806323b872dd1461022d5780632d0335ab146102565780632f39352a146102935780633330880e146102be5780633bad0d36146102e95761012a565b806301ffc9a71461012f57806306fdde031461016c578063081812fc14610197578063095ea7b3146101d45780630c53c51c146101fd575b600080fd5b34801561013b57600080fd5b5061015660048036038101906101519190612c99565b610565565b604051610163919061358f565b60405180910390f35b34801561017857600080fd5b50610181610647565b60405161018e9190613656565b60405180910390f35b3480156101a357600080fd5b506101be60048036038101906101b99190612cf3565b6106d9565b6040516101cb91906134ea565b60405180910390f35b3480156101e057600080fd5b506101fb60048036038101906101f69190612c59565b61075e565b005b61021760048036038101906102129190612bc2565b610876565b6040516102249190613634565b60405180910390f35b34801561023957600080fd5b50610254600480360381019061024f9190612aac565b610b9b565b005b34801561026257600080fd5b5061027d60048036038101906102789190612a3f565b610bfb565b60405161028a91906138f8565b60405180910390f35b34801561029f57600080fd5b506102a8610c44565b6040516102b59190613656565b60405180910390f35b3480156102ca57600080fd5b506102d3610cd2565b6040516102e091906138f8565b60405180910390f35b3480156102f557600080fd5b50610310600480360381019061030b9190612cf3565b610e30565b60405161031d9190613656565b60405180910390f35b34801561033257600080fd5b5061034d60048036038101906103489190612aac565b610f28565b005b34801561035b57600080fd5b5061037660048036038101906103719190612cf3565b610f48565b60405161038391906134ea565b60405180910390f35b34801561039857600080fd5b506103b360048036038101906103ae9190612a3f565b610ffa565b6040516103c091906138f8565b60405180910390f35b3480156103d557600080fd5b506103de6110b2565b6040516103eb9190613656565b60405180910390f35b34801561040057600080fd5b5061041b60048036038101906104169190612b82565b611144565b005b34801561042957600080fd5b50610444600480360381019061043f9190612aff565b61115a565b005b34801561045257600080fd5b5061046d60048036038101906104689190612cf3565b6111bc565b60405161047a9190613656565b60405180910390f35b34801561048f57600080fd5b506104aa60048036038101906104a59190612cf3565b6112b4565b6040516104b79190613656565b60405180910390f35b3480156104cc57600080fd5b506104e760048036038101906104e29190612cf3565b611406565b6040516104f49190613656565b60405180910390f35b34801561050957600080fd5b506105126114fe565b60405161051f9190613656565b60405180910390f35b34801561053457600080fd5b5061054f600480360381019061054a9190612a6c565b61158c565b60405161055c919061358f565b60405180910390f35b60007f80ac58cd000000000000000000000000000000000000000000000000000000007bffffffffffffffffffffffffffffffffffffffffffffffffffffffff1916827bffffffffffffffffffffffffffffffffffffffffffffffffffffffff1916148061063057507f5b5e139f000000000000000000000000000000000000000000000000000000007bffffffffffffffffffffffffffffffffffffffffffffffffffffffff1916827bffffffffffffffffffffffffffffffffffffffffffffffffffffffff1916145b80610640575061063f82611620565b5b9050919050565b60606000805461065690613bc0565b80601f016020809104026020016040519081016040528092919081815260200182805461068290613bc0565b80156106cf5780601f106106a4576101008083540402835291602001916106cf565b820191906000526020600020905b8154815290600101906020018083116106b257829003601f168201915b5050505050905090565b60006106e48261168a565b610723576040517f08c379a000000000000000000000000000000000000000000000000000000000815260040161071a90613838565b60405180910390fd5b6004600083815260200190815260200160002060009054906101000a900473ffffffffffffffffffffffffffffffffffffffff169050919050565b600061076982610f48565b90508073ffffffffffffffffffffffffffffffffffffffff168373ffffffffffffffffffffffffffffffffffffffff1614156107da576040517f08c379a00000000000000000000000000000000000000000000000000000000081526004016107d1906138b8565b60405180910390fd5b8073ffffffffffffffffffffffffffffffffffffffff166107f96116f6565b73ffffffffffffffffffffffffffffffffffffffff1614806108285750610827816108226116f6565b61158c565b5b610867576040517f08c379a000000000000000000000000000000000000000000000000000000000815260040161085e90613778565b60405180910390fd5b61087183836116fe565b505050565b60606000610883866117b7565b90506000357fffffffff00000000000000000000000000000000000000000000000000000000167bffffffffffffffffffffffffffffffffffffffffffffffffffffffff1916817bffffffffffffffffffffffffffffffffffffffffffffffffffffffff1916141561092a576040517f08c379a0000000000000000000000000000000000000000000000000000000008152600401610921906136d8565b60405180910390fd5b60006040518060600160405280600860008b73ffffffffffffffffffffffffffffffffffffffff1673ffffffffffffffffffffffffffffffffffffffff1681526020019081526020016000205481526020018973ffffffffffffffffffffffffffffffffffffffff1681526020018881525090506109ab88828888886117db565b6109ea576040517f08c379a00000000000000000000000000000000000000000000000000000000081526004016109e190613878565b60405180910390fd5b610a3d6001600860008b73ffffffffffffffffffffffffffffffffffffffff1673ffffffffffffffffffffffffffffffffffffffff168152602001908152602001600020546118ea90919063ffffffff16565b600860008a73ffffffffffffffffffffffffffffffffffffffff1673ffffffffffffffffffffffffffffffffffffffff168152602001908152602001600020819055506000803073ffffffffffffffffffffffffffffffffffffffff16898b604051602001610aad929190613309565b604051602081830303815290604052604051610ac991906132f2565b6000604051808303816000865af19150503d8060008114610b06576040519150601f19603f3d011682016040523d82523d6000602084013e610b0b565b606091505b509150915081610b50576040517f08c379a0000000000000000000000000000000000000000000000000000000008152600401610b4790613698565b60405180910390fd5b7f5845892132946850460bff5a0083f71031bc5bf9aadcd40f1de79423eac9b10b8a338b604051610b8393929190613505565b60405180910390a18094505050505095945050505050565b610bac610ba66116f6565b82611900565b610beb576040517f08c379a0000000000000000000000000000000000000000000000000000000008152600401610be2906138d8565b60405180910390fd5b610bf68383836119de565b505050565b6000600860008373ffffffffffffffffffffffffffffffffffffffff1673ffffffffffffffffffffffffffffffffffffffff168152602001908152602001600020549050919050565b600b8054610c5190613bc0565b80601f0160208091040260200160405190810160405280929190818152602001828054610c7d90613bc0565b8015610cca5780601f10610c9f57610100808354040283529160200191610cca565b820191906000526020600020905b815481529060010190602001808311610cad57829003601f168201915b505050505081565b6000610d126040518060400160405280601381526020017f4372656174696e6720457465726e616c4e465400000000000000000000000000815250611c3a565b6000610d1e6009611cd3565b90506000610d2b82610e30565b90506000610d38836111bc565b90506000610d4584611406565b90506000838383604051602001610d5e9392919061336c565b60405160208183030381529060405290506000600c858585604051602001610d89949392919061339d565b60405160208183030381529060405290506000610dce83610da984611ce1565b604051602001610dba929190613461565b604051602081830303815290604052611ce1565b9050600081604051602001610de391906134c8565b6040516020818303038152906040529050610dfd81611c3a565b610e0e610e08611e79565b89611f2a565b610e188882611f48565b610e226009611fbc565b879850505050505050505090565b60606000610e64610e4084611fd2565b604051602001610e5091906134a6565b604051602081830303815290604052612133565b9050600d8054905081610e779190613c9a565b9050600d8181548110610e8d57610e8c613d58565b5b906000526020600020018054610ea290613bc0565b80601f0160208091040260200160405190810160405280929190818152602001828054610ece90613bc0565b8015610f1b5780601f10610ef057610100808354040283529160200191610f1b565b820191906000526020600020905b815481529060010190602001808311610efe57829003601f168201915b5050505050915050919050565b610f438383836040518060200160405280600081525061115a565b505050565b6000806002600084815260200190815260200160002060009054906101000a900473ffffffffffffffffffffffffffffffffffffffff169050600073ffffffffffffffffffffffffffffffffffffffff168173ffffffffffffffffffffffffffffffffffffffff161415610ff1576040517f08c379a0000000000000000000000000000000000000000000000000000000008152600401610fe8906137b8565b60405180910390fd5b80915050919050565b60008073ffffffffffffffffffffffffffffffffffffffff168273ffffffffffffffffffffffffffffffffffffffff16141561106b576040517f08c379a000000000000000000000000000000000000000000000000000000000815260040161106290613798565b60405180910390fd5b600360008373ffffffffffffffffffffffffffffffffffffffff1673ffffffffffffffffffffffffffffffffffffffff168152602001908152602001600020549050919050565b6060600180546110c190613bc0565b80601f01602080910402602001604051908101604052809291908181526020018280546110ed90613bc0565b801561113a5780601f1061110f5761010080835404028352916020019161113a565b820191906000526020600020905b81548152906001019060200180831161111d57829003601f168201915b5050505050905090565b61115661114f6116f6565b8383612166565b5050565b61116b6111656116f6565b83611900565b6111aa576040517f08c379a00000000000000000000000000000000000000000000000000000000081526004016111a1906138d8565b60405180910390fd5b6111b6848484846122d3565b50505050565b606060006111f06111cc84611fd2565b6040516020016111dc919061341d565b604051602081830303815290604052612133565b9050600e80549050816112039190613c9a565b9050600e818154811061121957611218613d58565b5b90600052602060002001805461122e90613bc0565b80601f016020809104026020016040519081016040528092919081815260200182805461125a90613bc0565b80156112a75780601f1061127c576101008083540402835291602001916112a7565b820191906000526020600020905b81548152906001019060200180831161128a57829003601f168201915b5050505050915050919050565b60606112bf8261168a565b6112fe576040517f08c379a00000000000000000000000000000000000000000000000000000000081526004016112f590613818565b60405180910390fd5b600060066000848152602001908152602001600020805461131e90613bc0565b80601f016020809104026020016040519081016040528092919081815260200182805461134a90613bc0565b80156113975780601f1061136c57610100808354040283529160200191611397565b820191906000526020600020905b81548152906001019060200180831161137a57829003601f168201915b5050505050905060006113a861232f565b90506000815114156113be578192505050611401565b6000825111156113f35780826040516020016113db929190613348565b60405160208183030381529060405292505050611401565b6113fc84612346565b925050505b919050565b6060600061143a61141684611fd2565b604051602001611426919061343f565b604051602081830303815290604052612133565b9050600f805490508161144d9190613c9a565b9050600f818154811061146357611462613d58565b5b90600052602060002001805461147890613bc0565b80601f01602080910402602001604051908101604052809291908181526020018280546114a490613bc0565b80156114f15780601f106114c6576101008083540402835291602001916114f1565b820191906000526020600020905b8154815290600101906020018083116114d457829003601f168201915b5050505050915050919050565b600a805461150b90613bc0565b80601f016020809104026020016040519081016040528092919081815260200182805461153790613bc0565b80156115845780601f1061155957610100808354040283529160200191611584565b820191906000526020600020905b81548152906001019060200180831161156757829003601f168201915b505050505081565b6000600560008473ffffffffffffffffffffffffffffffffffffffff1673ffffffffffffffffffffffffffffffffffffffff16815260200190815260200160002060008373ffffffffffffffffffffffffffffffffffffffff1673ffffffffffffffffffffffffffffffffffffffff16815260200190815260200160002060009054906101000a900460ff16905092915050565b60007f01ffc9a7000000000000000000000000000000000000000000000000000000007bffffffffffffffffffffffffffffffffffffffffffffffffffffffff1916827bffffffffffffffffffffffffffffffffffffffffffffffffffffffff1916149050919050565b60008073ffffffffffffffffffffffffffffffffffffffff166002600084815260200190815260200160002060009054906101000a900473ffffffffffffffffffffffffffffffffffffffff1673ffffffffffffffffffffffffffffffffffffffff1614159050919050565b600033905090565b816004600083815260200190815260200160002060006101000a81548173ffffffffffffffffffffffffffffffffffffffff021916908373ffffffffffffffffffffffffffffffffffffffff160217905550808273ffffffffffffffffffffffffffffffffffffffff1661177183610f48565b73ffffffffffffffffffffffffffffffffffffffff167f8c5be1e5ebec7d5bd14f71427d1e84f3dd0314c0f7b2291e5b200ac8c7c3b92560405160405180910390a45050565b600080825114156117ce57600060e01b90506117d6565b602082015190505b919050565b60008060016117f16117ec886123ed565b612455565b8487876040516000815260200160405260405161181194939291906135ef565b6020604051602081039080840390855afa158015611833573d6000803e3d6000fd5b505050602060405103519050600073ffffffffffffffffffffffffffffffffffffffff168173ffffffffffffffffffffffffffffffffffffffff1614156118af576040517f08c379a00000000000000000000000000000000000000000000000000000000081526004016118a690613738565b60405180910390fd5b8673ffffffffffffffffffffffffffffffffffffffff168173ffffffffffffffffffffffffffffffffffffffff161491505095945050505050565b600081836118f891906139cc565b905092915050565b600061190b8261168a565b61194a576040517f08c379a000000000000000000000000000000000000000000000000000000000815260040161194190613758565b60405180910390fd5b600061195583610f48565b90508073ffffffffffffffffffffffffffffffffffffffff168473ffffffffffffffffffffffffffffffffffffffff1614806119c457508373ffffffffffffffffffffffffffffffffffffffff166119ac846106d9565b73ffffffffffffffffffffffffffffffffffffffff16145b806119d557506119d4818561158c565b5b91505092915050565b8273ffffffffffffffffffffffffffffffffffffffff166119fe82610f48565b73ffffffffffffffffffffffffffffffffffffffff1614611a54576040517f08c379a0000000000000000000000000000000000000000000000000000000008152600401611a4b90613858565b60405180910390fd5b600073ffffffffffffffffffffffffffffffffffffffff168273ffffffffffffffffffffffffffffffffffffffff161415611ac4576040517f08c379a0000000000000000000000000000000000000000000000000000000008152600401611abb906136f8565b60405180910390fd5b611acf83838361248e565b611ada6000826116fe565b6001600360008573ffffffffffffffffffffffffffffffffffffffff1673ffffffffffffffffffffffffffffffffffffffff1681526020019081526020016000206000828254611b2a9190613aad565b925050819055506001600360008473ffffffffffffffffffffffffffffffffffffffff1673ffffffffffffffffffffffffffffffffffffffff1681526020019081526020016000206000828254611b8191906139cc565b92505081905550816002600083815260200190815260200160002060006101000a81548173ffffffffffffffffffffffffffffffffffffffff021916908373ffffffffffffffffffffffffffffffffffffffff160217905550808273ffffffffffffffffffffffffffffffffffffffff168473ffffffffffffffffffffffffffffffffffffffff167fddf252ad1be2c89b69c2b068fc378daa952ba7f163c4a11628f55a4df523b3ef60405160405180910390a4505050565b611cd081604051602401611c4e9190613656565b6040516020818303038152906040527f41304fac000000000000000000000000000000000000000000000000000000007bffffffffffffffffffffffffffffffffffffffffffffffffffffffff19166020820180517bffffffffffffffffffffffffffffffffffffffffffffffffffffffff8381831617835250505050612493565b50565b600081600001549050919050565b60606000825190506000811415611d0a5760405180602001604052806000815250915050611e74565b60006003600283611d1b91906139cc565b611d259190613a22565b6004611d319190613a53565b90506000602082611d4291906139cc565b67ffffffffffffffff811115611d5b57611d5a613d87565b5b6040519080825280601f01601f191660200182016040528015611d8d5781602001600182028036833780820191505090505b5090506000604051806060016040528060408152602001614607604091399050600181016020830160005b86811015611e315760038101905062ffffff818a015116603f8160121c168401518060081b905060ff603f83600c1c1686015116810190508060081b905060ff603f8360061c1686015116810190508060081b905060ff603f831686015116810190508060e01b90508084526004840193505050611db8565b506003860660018114611e4b5760028114611e5b57611e66565b613d3d60f01b6002830352611e66565b603d60f81b60018303525b508484525050819450505050505b919050565b60003073ffffffffffffffffffffffffffffffffffffffff163373ffffffffffffffffffffffffffffffffffffffff161415611f2357600080368080601f016020809104026020016040519081016040528093929190818152602001838380828437600081840152601f19601f820116905080830192505050505050509050600080369050905073ffffffffffffffffffffffffffffffffffffffff818301511692505050611f27565b3390505b90565b611f448282604051806020016040528060008152506124bc565b5050565b611f518261168a565b611f90576040517f08c379a0000000000000000000000000000000000000000000000000000000008152600401611f87906137d8565b60405180910390fd5b80600660008481526020019081526020016000209080519060200190611fb7929190612899565b505050565b6001816000016000828254019250508190555050565b6060600082141561201a576040518060400160405280600181526020017f3000000000000000000000000000000000000000000000000000000000000000815250905061212e565b600082905060005b6000821461204c57808061203590613c23565b915050600a826120459190613a22565b9150612022565b60008167ffffffffffffffff81111561206857612067613d87565b5b6040519080825280601f01601f19166020018201604052801561209a5781602001600182028036833780820191505090505b5090505b60008514612127576001826120b39190613aad565b9150600a856120c29190613c9a565b60306120ce91906139cc565b60f81b8183815181106120e4576120e3613d58565b5b60200101907effffffffffffffffffffffffffffffffffffffffffffffffffffffffffffff1916908160001a905350600a856121209190613a22565b945061209e565b8093505050505b919050565b6000816040516020016121469190613331565b6040516020818303038152906040528051906020012060001c9050919050565b8173ffffffffffffffffffffffffffffffffffffffff168373ffffffffffffffffffffffffffffffffffffffff1614156121d5576040517f08c379a00000000000000000000000000000000000000000000000000000000081526004016121cc90613718565b60405180910390fd5b80600560008573ffffffffffffffffffffffffffffffffffffffff1673ffffffffffffffffffffffffffffffffffffffff16815260200190815260200160002060008473ffffffffffffffffffffffffffffffffffffffff1673ffffffffffffffffffffffffffffffffffffffff16815260200190815260200160002060006101000a81548160ff0219169083151502179055508173ffffffffffffffffffffffffffffffffffffffff168373ffffffffffffffffffffffffffffffffffffffff167f17307eab39ab6107e8899845ad3d59bd9653f200f220920489ca2b5937696c31836040516122c6919061358f565b60405180910390a3505050565b6122de8484846119de565b6122ea84848484612517565b612329576040517f08c379a000000000000000000000000000000000000000000000000000000000815260040161232090613678565b60405180910390fd5b50505050565b606060405180602001604052806000815250905090565b60606123518261168a565b612390576040517f08c379a000000000000000000000000000000000000000000000000000000000815260040161238790613898565b60405180910390fd5b600061239a61232f565b905060008151116123ba57604051806020016040528060008152506123e5565b806123c484611fd2565b6040516020016123d5929190613348565b6040516020818303038152906040525b915050919050565b60006040518060800160405280604381526020016145c460439139805190602001208260000151836020015184604001518051906020012060405160200161243894939291906135aa565b604051602081830303815290604052805190602001209050919050565b600061245f6126ae565b826040516020016124719291906133e6565b604051602081830303815290604052805190602001209050919050565b505050565b60008151905060006a636f6e736f6c652e6c6f679050602083016000808483855afa5050505050565b6124c683836126b8565b6124d36000848484612517565b612512576040517f08c379a000000000000000000000000000000000000000000000000000000000815260040161250990613678565b60405180910390fd5b505050565b60006125388473ffffffffffffffffffffffffffffffffffffffff16612886565b156126a1578373ffffffffffffffffffffffffffffffffffffffff1663150b7a026125616116f6565b8786866040518563ffffffff1660e01b81526004016125839493929190613543565b602060405180830381600087803b15801561259d57600080fd5b505af19250505080156125ce57506040513d601f19601f820116820180604052508101906125cb9190612cc6565b60015b612651573d80600081146125fe576040519150601f19603f3d011682016040523d82523d6000602084013e612603565b606091505b50600081511415612649576040517f08c379a000000000000000000000000000000000000000000000000000000000815260040161264090613678565b60405180910390fd5b805181602001fd5b63150b7a0260e01b7bffffffffffffffffffffffffffffffffffffffffffffffffffffffff1916817bffffffffffffffffffffffffffffffffffffffffffffffffffffffff1916149150506126a6565b600190505b949350505050565b6000600754905090565b600073ffffffffffffffffffffffffffffffffffffffff168273ffffffffffffffffffffffffffffffffffffffff161415612728576040517f08c379a000000000000000000000000000000000000000000000000000000000815260040161271f906137f8565b60405180910390fd5b6127318161168a565b15612771576040517f08c379a0000000000000000000000000000000000000000000000000000000008152600401612768906136b8565b60405180910390fd5b61277d6000838361248e565b6001600360008473ffffffffffffffffffffffffffffffffffffffff1673ffffffffffffffffffffffffffffffffffffffff16815260200190815260200160002060008282546127cd91906139cc565b92505081905550816002600083815260200190815260200160002060006101000a81548173ffffffffffffffffffffffffffffffffffffffff021916908373ffffffffffffffffffffffffffffffffffffffff160217905550808273ffffffffffffffffffffffffffffffffffffffff16600073ffffffffffffffffffffffffffffffffffffffff167fddf252ad1be2c89b69c2b068fc378daa952ba7f163c4a11628f55a4df523b3ef60405160405180910390a45050565b600080823b905060008111915050919050565b8280546128a590613bc0565b90600052602060002090601f0160209004810192826128c7576000855561290e565b82601f106128e057805160ff191683800117855561290e565b8280016001018555821561290e579182015b8281111561290d5782518255916020019190600101906128f2565b5b50905061291b919061291f565b5090565b5b80821115612938576000816000905550600101612920565b5090565b600061294f61294a84613938565b613913565b90508281526020810184848401111561296b5761296a613dbb565b5b612976848285613b7e565b509392505050565b60008135905061298d81614539565b92915050565b6000813590506129a281614550565b92915050565b6000813590506129b781614567565b92915050565b6000813590506129cc8161457e565b92915050565b6000815190506129e18161457e565b92915050565b600082601f8301126129fc576129fb613db6565b5b8135612a0c84826020860161293c565b91505092915050565b600081359050612a2481614595565b92915050565b600081359050612a39816145ac565b92915050565b600060208284031215612a5557612a54613dc5565b5b6000612a638482850161297e565b91505092915050565b60008060408385031215612a8357612a82613dc5565b5b6000612a918582860161297e565b9250506020612aa28582860161297e565b9150509250929050565b600080600060608486031215612ac557612ac4613dc5565b5b6000612ad38682870161297e565b9350506020612ae48682870161297e565b9250506040612af586828701612a15565b9150509250925092565b60008060008060808587031215612b1957612b18613dc5565b5b6000612b278782880161297e565b9450506020612b388782880161297e565b9350506040612b4987828801612a15565b925050606085013567ffffffffffffffff811115612b6a57612b69613dc0565b5b612b76878288016129e7565b91505092959194509250565b60008060408385031215612b9957612b98613dc5565b5b6000612ba78582860161297e565b9250506020612bb885828601612993565b9150509250929050565b600080600080600060a08688031215612bde57612bdd613dc5565b5b6000612bec8882890161297e565b955050602086013567ffffffffffffffff811115612c0d57612c0c613dc0565b5b612c19888289016129e7565b9450506040612c2a888289016129a8565b9350506060612c3b888289016129a8565b9250506080612c4c88828901612a2a565b9150509295509295909350565b60008060408385031215612c7057612c6f613dc5565b5b6000612c7e8582860161297e565b9250506020612c8f85828601612a15565b9150509250929050565b600060208284031215612caf57612cae613dc5565b5b6000612cbd848285016129bd565b91505092915050565b600060208284031215612cdc57612cdb613dc5565b5b6000612cea848285016129d2565b91505092915050565b600060208284031215612d0957612d08613dc5565b5b6000612d1784828501612a15565b91505092915050565b612d2981613af3565b82525050565b612d3881613ae1565b82525050565b612d4f612d4a82613ae1565b613c6c565b82525050565b612d5e81613b05565b82525050565b612d6d81613b11565b82525050565b612d84612d7f82613b11565b613c7e565b82525050565b6000612d958261397e565b612d9f8185613994565b9350612daf818560208601613b8d565b612db881613dca565b840191505092915050565b6000612dce8261397e565b612dd881856139a5565b9350612de8818560208601613b8d565b80840191505092915050565b6000612dff82613989565b612e0981856139b0565b9350612e19818560208601613b8d565b612e2281613dca565b840191505092915050565b6000612e3882613989565b612e4281856139c1565b9350612e52818560208601613b8d565b80840191505092915050565b60008154612e6b81613bc0565b612e7581866139c1565b94506001821660008114612e905760018114612ea157612ed4565b60ff19831686528186019350612ed4565b612eaa85613969565b60005b83811015612ecc57815481890152600182019150602081019050612ead565b838801955050505b50505092915050565b6000612eea6032836139b0565b9150612ef582613de8565b604082019050919050565b6000612f0d601c836139b0565b9150612f1882613e37565b602082019050919050565b6000612f30601c836139b0565b9150612f3b82613e60565b602082019050919050565b6000612f53603d836139b0565b9150612f5e82613e89565b604082019050919050565b6000612f766002836139c1565b9150612f8182613ed8565b600282019050919050565b6000612f996006836139c1565b9150612fa482613f01565b600682019050919050565b6000612fbc6024836139b0565b9150612fc782613f2a565b604082019050919050565b6000612fdf6019836139b0565b9150612fea82613f79565b602082019050919050565b60006130026011836139b0565b915061300d82613fa2565b602082019050919050565b6000613025602c836139b0565b915061303082613fcb565b604082019050919050565b6000613048600d836139c1565b91506130538261401a565b600d82019050919050565b600061306b6038836139b0565b915061307682614043565b604082019050919050565b600061308e602a836139b0565b915061309982614092565b604082019050919050565b60006130b16029836139b0565b91506130bc826140e1565b604082019050919050565b60006130d4602e836139b0565b91506130df82614130565b604082019050919050565b60006130f76004836139c1565b91506131028261417f565b600482019050919050565b600061311a6002836139c1565b9150613125826141a8565b600282019050919050565b600061313d6020836139b0565b9150613148826141d1565b602082019050919050565b60006131606031836139b0565b915061316b826141fa565b604082019050919050565b6000613183602c836139b0565b915061318e82614249565b604082019050919050565b60006131a66029836139b0565b91506131b182614298565b604082019050919050565b60006131c96021836139b0565b91506131d4826142e7565b604082019050919050565b60006131ec602f836139b0565b91506131f782614336565b604082019050919050565b600061320f600a836139c1565b915061321a82614385565b600a82019050919050565b60006132326007836139c1565b915061323d826143ae565b600782019050919050565b60006132556021836139b0565b9150613260826143d7565b604082019050919050565b6000613278601d836139c1565b915061328382614426565b601d82019050919050565b600061329b6031836139b0565b91506132a68261444f565b604082019050919050565b60006132be6068836139c1565b91506132c98261449e565b606882019050919050565b6132dd81613b67565b82525050565b6132ec81613b71565b82525050565b60006132fe8284612dc3565b915081905092915050565b60006133158285612dc3565b91506133218284612d3e565b6014820191508190509392505050565b600061333d8284612e2d565b915081905092915050565b60006133548285612e2d565b91506133608284612e2d565b91508190509392505050565b60006133788286612e2d565b91506133848285612e2d565b91506133908284612e2d565b9150819050949350505050565b60006133a98287612e5e565b91506133b58286612e2d565b91506133c18285612e2d565b91506133cd8284612e2d565b91506133d88261303b565b915081905095945050505050565b60006133f182612f69565b91506133fd8285612d73565b60208201915061340d8284612d73565b6020820191508190509392505050565b600061342882612f8c565b91506134348284612e2d565b915081905092915050565b600061344a826130ea565b91506134568284612e2d565b915081905092915050565b600061346c82613202565b91506134788285612e2d565b9150613483826132b1565b915061348f8284612e2d565b915061349a8261310d565b91508190509392505050565b60006134b182613225565b91506134bd8284612e2d565b915081905092915050565b60006134d38261326b565b91506134df8284612e2d565b915081905092915050565b60006020820190506134ff6000830184612d2f565b92915050565b600060608201905061351a6000830186612d2f565b6135276020830185612d20565b81810360408301526135398184612d8a565b9050949350505050565b60006080820190506135586000830187612d2f565b6135656020830186612d2f565b61357260408301856132d4565b81810360608301526135848184612d8a565b905095945050505050565b60006020820190506135a46000830184612d55565b92915050565b60006080820190506135bf6000830187612d64565b6135cc60208301866132d4565b6135d96040830185612d2f565b6135e66060830184612d64565b95945050505050565b60006080820190506136046000830187612d64565b61361160208301866132e3565b61361e6040830185612d64565b61362b6060830184612d64565b95945050505050565b6000602082019050818103600083015261364e8184612d8a565b905092915050565b600060208201905081810360008301526136708184612df4565b905092915050565b6000602082019050818103600083015261369181612edd565b9050919050565b600060208201905081810360008301526136b181612f00565b9050919050565b600060208201905081810360008301526136d181612f23565b9050919050565b600060208201905081810360008301526136f181612f46565b9050919050565b6000602082019050818103600083015261371181612faf565b9050919050565b6000602082019050818103600083015261373181612fd2565b9050919050565b6000602082019050818103600083015261375181612ff5565b9050919050565b6000602082019050818103600083015261377181613018565b9050919050565b600060208201905081810360008301526137918161305e565b9050919050565b600060208201905081810360008301526137b181613081565b9050919050565b600060208201905081810360008301526137d1816130a4565b9050919050565b600060208201905081810360008301526137f1816130c7565b9050919050565b6000602082019050818103600083015261381181613130565b9050919050565b6000602082019050818103600083015261383181613153565b9050919050565b6000602082019050818103600083015261385181613176565b9050919050565b6000602082019050818103600083015261387181613199565b9050919050565b60006020820190508181036000830152613891816131bc565b9050919050565b600060208201905081810360008301526138b1816131df565b9050919050565b600060208201905081810360008301526138d181613248565b9050919050565b600060208201905081810360008301526138f18161328e565b9050919050565b600060208201905061390d60008301846132d4565b92915050565b600061391d61392e565b90506139298282613bf2565b919050565b6000604051905090565b600067ffffffffffffffff82111561395357613952613d87565b5b61395c82613dca565b9050602081019050919050565b60008190508160005260206000209050919050565b600081519050919050565b600081519050919050565b600082825260208201905092915050565b600081905092915050565b600082825260208201905092915050565b600081905092915050565b60006139d782613b67565b91506139e283613b67565b9250827fffffffffffffffffffffffffffffffffffffffffffffffffffffffffffffffff03821115613a1757613a16613ccb565b5b828201905092915050565b6000613a2d82613b67565b9150613a3883613b67565b925082613a4857613a47613cfa565b5b828204905092915050565b6000613a5e82613b67565b9150613a6983613b67565b9250817fffffffffffffffffffffffffffffffffffffffffffffffffffffffffffffffff0483118215151615613aa257613aa1613ccb565b5b828202905092915050565b6000613ab882613b67565b9150613ac383613b67565b925082821015613ad657613ad5613ccb565b5b828203905092915050565b6000613aec82613b47565b9050919050565b6000613afe82613b47565b9050919050565b60008115159050919050565b6000819050919050565b60007fffffffff0000000000000000000000000000000000000000000000000000000082169050919050565b600073ffffffffffffffffffffffffffffffffffffffff82169050919050565b6000819050919050565b600060ff82169050919050565b82818337600083830152505050565b60005b83811015613bab578082015181840152602081019050613b90565b83811115613bba576000848401525b50505050565b60006002820490506001821680613bd857607f821691505b60208210811415613bec57613beb613d29565b5b50919050565b613bfb82613dca565b810181811067ffffffffffffffff82111715613c1a57613c19613d87565b5b80604052505050565b6000613c2e82613b67565b91507fffffffffffffffffffffffffffffffffffffffffffffffffffffffffffffffff821415613c6157613c60613ccb565b5b600182019050919050565b6000613c7782613c88565b9050919050565b6000819050919050565b6000613c9382613ddb565b9050919050565b6000613ca582613b67565b9150613cb083613b67565b925082613cc057613cbf613cfa565b5b828206905092915050565b7f4e487b7100000000000000000000000000000000000000000000000000000000600052601160045260246000fd5b7f4e487b7100000000000000000000000000000000000000000000000000000000600052601260045260246000fd5b7f4e487b7100000000000000000000000000000000000000000000000000000000600052602260045260246000fd5b7f4e487b7100000000000000000000000000000000000000000000000000000000600052603260045260246000fd5b7f4e487b7100000000000000000000000000000000000000000000000000000000600052604160045260246000fd5b600080fd5b600080fd5b600080fd5b600080fd5b6000601f19601f8301169050919050565b60008160601b9050919050565b7f4552433732313a207472616e7366657220746f206e6f6e20455243373231526560008201527f63656976657220696d706c656d656e7465720000000000000000000000000000602082015250565b7f46756e6374696f6e2063616c6c206e6f74207375636365737366756c00000000600082015250565b7f4552433732313a20746f6b656e20616c7265616479206d696e74656400000000600082015250565b7f66756e6374696f6e5369676e61747572652063616e206e6f74206265206f662060008201527f657865637574654d6574615472616e73616374696f6e206d6574686f64000000602082015250565b7f1901000000000000000000000000000000000000000000000000000000000000600082015250565b7f776561706f6e0000000000000000000000000000000000000000000000000000600082015250565b7f4552433732313a207472616e7366657220746f20746865207a65726f2061646460008201527f7265737300000000000000000000000000000000000000000000000000000000602082015250565b7f4552433732313a20617070726f766520746f2063616c6c657200000000000000600082015250565b7f496e76616c6964207369676e6174757265000000000000000000000000000000600082015250565b7f4552433732313a206f70657261746f7220717565727920666f72206e6f6e657860008201527f697374656e7420746f6b656e0000000000000000000000000000000000000000602082015250565b7f3c2f746578743e3c2f7376673e00000000000000000000000000000000000000600082015250565b7f4552433732313a20617070726f76652063616c6c6572206973206e6f74206f7760008201527f6e6572206e6f7220617070726f76656420666f7220616c6c0000000000000000602082015250565b7f4552433732313a2062616c616e636520717565727920666f7220746865207a6560008201527f726f206164647265737300000000000000000000000000000000000000000000602082015250565b7f4552433732313a206f776e657220717565727920666f72206e6f6e657869737460008201527f656e7420746f6b656e0000000000000000000000000000000000000000000000602082015250565b7f45524337323155524953746f726167653a2055524920736574206f66206e6f6e60008201527f6578697374656e7420746f6b656e000000000000000000000000000000000000602082015250565b7f72616e6b00000000000000000000000000000000000000000000000000000000600082015250565b7f227d000000000000000000000000000000000000000000000000000000000000600082015250565b7f4552433732313a206d696e7420746f20746865207a65726f2061646472657373600082015250565b7f45524337323155524953746f726167653a2055524920717565727920666f722060008201527f6e6f6e6578697374656e7420746f6b656e000000000000000000000000000000602082015250565b7f4552433732313a20617070726f76656420717565727920666f72206e6f6e657860008201527f697374656e7420746f6b656e0000000000000000000000000000000000000000602082015250565b7f4552433732313a207472616e73666572206f6620746f6b656e2074686174206960008201527f73206e6f74206f776e0000000000000000000000000000000000000000000000602082015250565b7f5369676e657220616e64207369676e617475726520646f206e6f74206d61746360008201527f6800000000000000000000000000000000000000000000000000000000000000602082015250565b7f4552433732314d657461646174613a2055524920717565727920666f72206e6f60008201527f6e6578697374656e7420746f6b656e0000000000000000000000000000000000602082015250565b7f7b226e616d65223a202200000000000000000000000000000000000000000000600082015250565b7f656c656d656e7400000000000000000000000000000000000000000000000000600082015250565b7f4552433732313a20617070726f76616c20746f2063757272656e74206f776e6560008201527f7200000000000000000000000000000000000000000000000000000000000000602082015250565b7f646174613a6170706c69636174696f6e2f6a736f6e3b6261736536342c000000600082015250565b7f4552433732313a207472616e736665722063616c6c6572206973206e6f74206f60008201527f776e6572206e6f7220617070726f766564000000000000000000000000000000602082015250565b7f222c20226465736372697074696f6e223a20224120686967686c79206163636c60008201527f61696d656420636f6c6c656374696f6e20457465726e616c2057617272696f7260208201527f73222c2022696d616765223a2022646174613a696d6167652f7376672b786d6c60408201527f3b6261736536342c000000000000000000000000000000000000000000000000606082015250565b61454281613ae1565b811461454d57600080fd5b50565b61455981613b05565b811461456457600080fd5b50565b61457081613b11565b811461457b57600080fd5b50565b61458781613b1b565b811461459257600080fd5b50565b61459e81613b67565b81146145a957600080fd5b50565b6145b581613b71565b81146145c057600080fd5b5056fe4d6574615472616e73616374696f6e2875696e74323536206e6f6e63652c616464726573732066726f6d2c62797465732066756e6374696f6e5369676e6174757265294142434445464748494a4b4c4d4e4f505152535455565758595a6162636465666768696a6b6c6d6e6f707172737475767778797a303132333435363738392b2fa2646970667358221220c950b554abc8114995cdf3497b92febe09e1fd83ca616535e827e85ccd0ba7db64736f6c63430008060033454950373132446f6d61696e28737472696e67206e616d652c737472696e672076657273696f6e2c6164647265737320766572696679696e67436f6e74726163742c627974657333322073616c74293c73766720786d6c6e733d27687474703a2f2f7777772e77332e6f72672f323030302f73766727207072657365727665417370656374526174696f3d27784d696e594d696e206d656574272076696577426f783d273020302033353020333530273e3c7374796c653e2e62617365207b2066696c6c3a2077686974653b20666f6e742d66616d696c793a2073657269663b20666f6e742d73697a653a20323470783b207d3c2f7374796c653e3c726563742077696474683d273130302527206865696768743d2731303025272066696c6c3d27626c61636b27202f3e3c7465787420783d273530252720793d273530252720636c6173733d27626173652720646f6d696e616e742d626173656c696e653d276d6964646c652720746578742d616e63686f723d276d6964646c65273e",
	"linkReferences": {},
	"deployedLinkReferences": {}
}