{
  "_format": "hh-sol-artifact-1",
  "contractName": "EternalNFT2771",
  "sourceName": "contracts/NFT2771.sol",
  "abi": [
    {
      "inputs": [
        {
          "internalType": "address",
          "name": "_trustedForwarder",
          "type": "address"
        }
      ],
      "stateMutability": "nonpayable",
      "type": "constructor"
    },
    {
      "anonymous": false,
      "inputs": [
        {
          "indexed": true,
          "internalType": "address",
          "name": "owner",
          "type": "address"
        },
        {
          "indexed": true,
          "internalType": "address",
          "name": "approved",
          "type": "address"
        },
        {
          "indexed": true,
          "internalType": "uint256",
          "name": "tokenId",
          "type": "uint256"
        }
      ],
      "name": "Approval",
      "type": "event"
    },
    {
      "anonymous": false,
      "inputs": [
        {
          "indexed": true,
          "internalType": "address",
          "name": "owner",
          "type": "address"
        },
        {
          "indexed": true,
          "internalType": "address",
          "name": "operator",
          "type": "address"
        },
        {
          "indexed": false,
          "internalType": "bool",
          "name": "approved",
          "type": "bool"
        }
      ],
      "name": "ApprovalForAll",
      "type": "event"
    },
    {
      "anonymous": false,
      "inputs": [
        {
          "indexed": true,
          "internalType": "address",
          "name": "from",
          "type": "address"
        },
        {
          "indexed": true,
          "internalType": "address",
          "name": "to",
          "type": "address"
        },
        {
          "indexed": true,
          "internalType": "uint256",
          "name": "tokenId",
          "type": "uint256"
        }
      ],
      "name": "Transfer",
      "type": "event"
    },
    {
      "inputs": [
        {
          "internalType": "address",
          "name": "to",
          "type": "address"
        },
        {
          "internalType": "uint256",
          "name": "tokenId",
          "type": "uint256"
        }
      ],
      "name": "approve",
      "outputs": [],
      "stateMutability": "nonpayable",
      "type": "function"
    },
    {
      "inputs": [
        {
          "internalType": "address",
          "name": "owner",
          "type": "address"
        }
      ],
      "name": "balanceOf",
      "outputs": [
        {
          "internalType": "uint256",
          "name": "",
          "type": "uint256"
        }
      ],
      "stateMutability": "view",
      "type": "function"
    },
    {
      "inputs": [],
      "name": "collectionName",
      "outputs": [
        {
          "internalType": "string",
          "name": "",
          "type": "string"
        }
      ],
      "stateMutability": "view",
      "type": "function"
    },
    {
      "inputs": [],
      "name": "collectionSymbol",
      "outputs": [
        {
          "internalType": "string",
          "name": "",
          "type": "string"
        }
      ],
      "stateMutability": "view",
      "type": "function"
    },
    {
      "inputs": [],
      "name": "createEternalNFT",
      "outputs": [
        {
          "internalType": "uint256",
          "name": "",
          "type": "uint256"
        }
      ],
      "stateMutability": "nonpayable",
      "type": "function"
    },
    {
      "inputs": [
        {
          "internalType": "uint256",
          "name": "tokenId",
          "type": "uint256"
        }
      ],
      "name": "getApproved",
      "outputs": [
        {
          "internalType": "address",
          "name": "",
          "type": "address"
        }
      ],
      "stateMutability": "view",
      "type": "function"
    },
    {
      "inputs": [
        {
          "internalType": "address",
          "name": "owner",
          "type": "address"
        },
        {
          "internalType": "address",
          "name": "operator",
          "type": "address"
        }
      ],
      "name": "isApprovedForAll",
      "outputs": [
        {
          "internalType": "bool",
          "name": "",
          "type": "bool"
        }
      ],
      "stateMutability": "view",
      "type": "function"
    },
    {
      "inputs": [
        {
          "internalType": "address",
          "name": "forwarder",
          "type": "address"
        }
      ],
      "name": "isTrustedForwarder",
      "outputs": [
        {
          "internalType": "bool",
          "name": "",
          "type": "bool"
        }
      ],
      "stateMutability": "view",
      "type": "function"
    },
    {
      "inputs": [],
      "name": "name",
      "outputs": [
        {
          "internalType": "string",
          "name": "",
          "type": "string"
        }
      ],
      "stateMutability": "view",
      "type": "function"
    },
    {
      "inputs": [
        {
          "internalType": "uint256",
          "name": "tokenId",
          "type": "uint256"
        }
      ],
      "name": "ownerOf",
      "outputs": [
        {
          "internalType": "address",
          "name": "",
          "type": "address"
        }
      ],
      "stateMutability": "view",
      "type": "function"
    },
    {
      "inputs": [
        {
          "internalType": "uint256",
          "name": "tokenId",
          "type": "uint256"
        }
      ],
      "name": "pickFirstWord",
      "outputs": [
        {
          "internalType": "string",
          "name": "",
          "type": "string"
        }
      ],
      "stateMutability": "view",
      "type": "function"
    },
    {
      "inputs": [
        {
          "internalType": "uint256",
          "name": "tokenId",
          "type": "uint256"
        }
      ],
      "name": "pickSecondWord",
      "outputs": [
        {
          "internalType": "string",
          "name": "",
          "type": "string"
        }
      ],
      "stateMutability": "view",
      "type": "function"
    },
    {
      "inputs": [
        {
          "internalType": "uint256",
          "name": "tokenId",
          "type": "uint256"
        }
      ],
      "name": "pickThirdWord",
      "outputs": [
        {
          "internalType": "string",
          "name": "",
          "type": "string"
        }
      ],
      "stateMutability": "view",
      "type": "function"
    },
    {
      "inputs": [
        {
          "internalType": "address",
          "name": "from",
          "type": "address"
        },
        {
          "internalType": "address",
          "name": "to",
          "type": "address"
        },
        {
          "internalType": "uint256",
          "name": "tokenId",
          "type": "uint256"
        }
      ],
      "name": "safeTransferFrom",
      "outputs": [],
      "stateMutability": "nonpayable",
      "type": "function"
    },
    {
      "inputs": [
        {
          "internalType": "address",
          "name": "from",
          "type": "address"
        },
        {
          "internalType": "address",
          "name": "to",
          "type": "address"
        },
        {
          "internalType": "uint256",
          "name": "tokenId",
          "type": "uint256"
        },
        {
          "internalType": "bytes",
          "name": "_data",
          "type": "bytes"
        }
      ],
      "name": "safeTransferFrom",
      "outputs": [],
      "stateMutability": "nonpayable",
      "type": "function"
    },
    {
      "inputs": [
        {
          "internalType": "address",
          "name": "operator",
          "type": "address"
        },
        {
          "internalType": "bool",
          "name": "approved",
          "type": "bool"
        }
      ],
      "name": "setApprovalForAll",
      "outputs": [],
      "stateMutability": "nonpayable",
      "type": "function"
    },
    {
      "inputs": [
        {
          "internalType": "bytes4",
          "name": "interfaceId",
          "type": "bytes4"
        }
      ],
      "name": "supportsInterface",
      "outputs": [
        {
          "internalType": "bool",
          "name": "",
          "type": "bool"
        }
      ],
      "stateMutability": "view",
      "type": "function"
    },
    {
      "inputs": [],
      "name": "symbol",
      "outputs": [
        {
          "internalType": "string",
          "name": "",
          "type": "string"
        }
      ],
      "stateMutability": "view",
      "type": "function"
    },
    {
      "inputs": [
        {
          "internalType": "uint256",
          "name": "tokenId",
          "type": "uint256"
        }
      ],
      "name": "tokenURI",
      "outputs": [
        {
          "internalType": "string",
          "name": "",
          "type": "string"
        }
      ],
      "stateMutability": "view",
      "type": "function"
    },
    {
      "inputs": [
        {
          "internalType": "address",
          "name": "from",
          "type": "address"
        },
        {
          "internalType": "address",
          "name": "to",
          "type": "address"
        },
        {
          "internalType": "uint256",
          "name": "tokenId",
          "type": "uint256"
        }
      ],
      "name": "transferFrom",
      "outputs": [],
      "stateMutability": "nonpayable",
      "type": "function"
    },
    {
      "inputs": [],
      "name": "trustedForwarder",
      "outputs": [
        {
          "internalType": "address",
          "name": "",
          "type": "address"
        }
      ],
      "stateMutability": "view",
      "type": "function"
    }
  ],
  "bytecode": "0x608060405260405180610160016040528061012f81526020016200434761012f9139600b90805190602001906200003892919062000680565b506040518060e001604052806040518060400160405280600481526020017f466972650000000000000000000000000000000000000000000000000000000081525081526020016040518060400160405280600481526020017f57696e640000000000000000000000000000000000000000000000000000000081525081526020016040518060400160405280600481526020017f576176650000000000000000000000000000000000000000000000000000000081525081526020016040518060400160405280600581526020017f456172746800000000000000000000000000000000000000000000000000000081525081526020016040518060400160405280600781526020017f5468756e6465720000000000000000000000000000000000000000000000000081525081526020016040518060400160405280600581526020017f537061636500000000000000000000000000000000000000000000000000000081525081526020016040518060400160405280600481526020017f54696d6500000000000000000000000000000000000000000000000000000000815250815250600c906007620001f192919062000711565b506040518060e001604052806040518060400160405280600581526020017f53776f726400000000000000000000000000000000000000000000000000000081525081526020016040518060400160405280600581526020017f537065617200000000000000000000000000000000000000000000000000000081525081526020016040518060400160405280600681526020017f536869656c64000000000000000000000000000000000000000000000000000081525081526020016040518060400160405280600681526020017f48616d6d6572000000000000000000000000000000000000000000000000000081525081526020016040518060400160405280600581526020017f536162657200000000000000000000000000000000000000000000000000000081525081526020016040518060400160405280600381526020017f417865000000000000000000000000000000000000000000000000000000000081525081526020016040518060400160405280600381526020017f426f770000000000000000000000000000000000000000000000000000000000815250815250600d906007620003aa92919062000711565b506040518060e001604052806040518060400160405280600481526020017f4c6f72640000000000000000000000000000000000000000000000000000000081525081526020016040518060400160405280600481526020017f4b696e670000000000000000000000000000000000000000000000000000000081525081526020016040518060400160405280600781526020017f456d7065726f720000000000000000000000000000000000000000000000000081525081526020016040518060400160405280600981526020017f56656e657261626c65000000000000000000000000000000000000000000000081525081526020016040518060400160405280600881526020017f416e636573746f7200000000000000000000000000000000000000000000000081525081526020016040518060400160405280600581526020017f5361696e7400000000000000000000000000000000000000000000000000000081525081526020016040518060400160405280600381526020017f476f640000000000000000000000000000000000000000000000000000000000815250815250600e9060076200056392919062000711565b503480156200057157600080fd5b50604051620044763803806200447683398181016040528101906200059791906200086f565b6040518060400160405280600a81526020017f457465726e616c4e4654000000000000000000000000000000000000000000008152506040518060400160405280600481526020017f454e46540000000000000000000000000000000000000000000000000000000081525082806000806101000a81548173ffffffffffffffffffffffffffffffffffffffff021916908373ffffffffffffffffffffffffffffffffffffffff1602179055505081600190805190602001906200065d92919062000680565b5080600290805190602001906200067692919062000680565b5050505062000906565b8280546200068e90620008d0565b90600052602060002090601f016020900481019282620006b25760008555620006fe565b82601f10620006cd57805160ff1916838001178555620006fe565b82800160010185558215620006fe579182015b82811115620006fd578251825591602001919060010190620006e0565b5b5090506200070d919062000778565b5090565b82805482825590600052602060002090810192821562000765579160200282015b82811115620007645782518290805190602001906200075392919062000680565b509160200191906001019062000732565b5b50905062000774919062000797565b5090565b5b808211156200079357600081600090555060010162000779565b5090565b5b80821115620007bb5760008181620007b19190620007bf565b5060010162000798565b5090565b508054620007cd90620008d0565b6000825580601f10620007e1575062000802565b601f01602090049060005260206000209081019062000801919062000778565b5b50565b600080fd5b600073ffffffffffffffffffffffffffffffffffffffff82169050919050565b600062000837826200080a565b9050919050565b62000849816200082a565b81146200085557600080fd5b50565b60008151905062000869816200083e565b92915050565b60006020828403121562000888576200088762000805565b5b6000620008988482850162000858565b91505092915050565b7f4e487b7100000000000000000000000000000000000000000000000000000000600052602260045260246000fd5b60006002820490506001821680620008e957607f821691505b602082108114156200090057620008ff620008a1565b5b50919050565b613a3180620009166000396000f3fe608060405234801561001057600080fd5b50600436106101375760003560e01c80636352211e116100b8578063b88d4fde1161007c578063b88d4fde14610362578063c63033861461037e578063c87b56dd146103ae578063e2d2c308146103de578063e5326ab11461040e578063e985e9c51461042c57610137565b80636352211e146102aa57806370a08231146102da5780637da0a8771461030a57806395d89b4114610328578063a22cb4651461034657610137565b80632f39352a116100ff5780632f39352a146101f25780633330880e146102105780633bad0d361461022e57806342842e0e1461025e578063572b6c051461027a57610137565b806301ffc9a71461013c57806306fdde031461016c578063081812fc1461018a578063095ea7b3146101ba57806323b872dd146101d6575b600080fd5b61015660048036038101906101519190612332565b61045c565b604051610163919061237a565b60405180910390f35b61017461053e565b604051610181919061242e565b60405180910390f35b6101a4600480360381019061019f9190612486565b6105d0565b6040516101b191906124f4565b60405180910390f35b6101d460048036038101906101cf919061253b565b610655565b005b6101f060048036038101906101eb919061257b565b61076d565b005b6101fa6107cd565b604051610207919061242e565b60405180910390f35b61021861085b565b60405161022591906125dd565b60405180910390f35b61024860048036038101906102439190612486565b6109b0565b604051610255919061242e565b60405180910390f35b6102786004803603810190610273919061257b565b610aa8565b005b610294600480360381019061028f91906125f8565b610ac8565b6040516102a1919061237a565b60405180910390f35b6102c460048036038101906102bf9190612486565b610b21565b6040516102d191906124f4565b60405180910390f35b6102f460048036038101906102ef91906125f8565b610bd3565b60405161030191906125dd565b60405180910390f35b610312610c8b565b60405161031f91906124f4565b60405180910390f35b610330610caf565b60405161033d919061242e565b60405180910390f35b610360600480360381019061035b9190612651565b610d41565b005b61037c600480360381019061037791906127c6565b610d57565b005b61039860048036038101906103939190612486565b610db9565b6040516103a5919061242e565b60405180910390f35b6103c860048036038101906103c39190612486565b610eb1565b6040516103d5919061242e565b60405180910390f35b6103f860048036038101906103f39190612486565b611003565b604051610405919061242e565b60405180910390f35b6104166110fb565b604051610423919061242e565b60405180910390f35b61044660048036038101906104419190612849565b611189565b604051610453919061237a565b60405180910390f35b60007f80ac58cd000000000000000000000000000000000000000000000000000000007bffffffffffffffffffffffffffffffffffffffffffffffffffffffff1916827bffffffffffffffffffffffffffffffffffffffffffffffffffffffff1916148061052757507f5b5e139f000000000000000000000000000000000000000000000000000000007bffffffffffffffffffffffffffffffffffffffffffffffffffffffff1916827bffffffffffffffffffffffffffffffffffffffffffffffffffffffff1916145b8061053757506105368261121d565b5b9050919050565b60606001805461054d906128b8565b80601f0160208091040260200160405190810160405280929190818152602001828054610579906128b8565b80156105c65780601f1061059b576101008083540402835291602001916105c6565b820191906000526020600020905b8154815290600101906020018083116105a957829003601f168201915b5050505050905090565b60006105db82611287565b61061a576040517f08c379a00000000000000000000000000000000000000000000000000000000081526004016106119061295c565b60405180910390fd5b6005600083815260200190815260200160002060009054906101000a900473ffffffffffffffffffffffffffffffffffffffff169050919050565b600061066082610b21565b90508073ffffffffffffffffffffffffffffffffffffffff168373ffffffffffffffffffffffffffffffffffffffff1614156106d1576040517f08c379a00000000000000000000000000000000000000000000000000000000081526004016106c8906129ee565b60405180910390fd5b8073ffffffffffffffffffffffffffffffffffffffff166106f06112f3565b73ffffffffffffffffffffffffffffffffffffffff16148061071f575061071e816107196112f3565b611189565b5b61075e576040517f08c379a000000000000000000000000000000000000000000000000000000000815260040161075590612a80565b60405180910390fd5b6107688383611302565b505050565b61077e6107786112f3565b826113bb565b6107bd576040517f08c379a00000000000000000000000000000000000000000000000000000000081526004016107b490612b12565b60405180910390fd5b6107c8838383611499565b505050565b600a80546107da906128b8565b80601f0160208091040260200160405190810160405280929190818152602001828054610806906128b8565b80156108535780601f1061082857610100808354040283529160200191610853565b820191906000526020600020905b81548152906001019060200180831161083657829003601f168201915b505050505081565b600061089b6040518060400160405280601381526020017f4372656174696e6720457465726e616c4e4654000000000000000000000000008152506116f5565b60006108a7600861178e565b905060006108b4826109b0565b905060006108c183610db9565b905060006108ce84611003565b905060008383836040516020016108e793929190612b6e565b60405160208183030381529060405290506000600b8585856040516020016109129493929190612c7f565b60405160208183030381529060405290506000610957836109328461179c565b604051602001610943929190612e1e565b60405160208183030381529060405261179c565b905060008160405160200161096c9190612eaf565b604051602081830303815290604052905061098e6109886112f3565b89611934565b6109988882611952565b6109a260086119c6565b879850505050505050505090565b606060006109e46109c0846119dc565b6040516020016109d09190612f1d565b604051602081830303815290604052611b3d565b9050600c80549050816109f79190612f6e565b9050600c8181548110610a0d57610a0c612f9f565b5b906000526020600020018054610a22906128b8565b80601f0160208091040260200160405190810160405280929190818152602001828054610a4e906128b8565b8015610a9b5780601f10610a7057610100808354040283529160200191610a9b565b820191906000526020600020905b815481529060010190602001808311610a7e57829003601f168201915b5050505050915050919050565b610ac383838360405180602001604052806000815250610d57565b505050565b60008060009054906101000a900473ffffffffffffffffffffffffffffffffffffffff1673ffffffffffffffffffffffffffffffffffffffff168273ffffffffffffffffffffffffffffffffffffffff16149050919050565b6000806003600084815260200190815260200160002060009054906101000a900473ffffffffffffffffffffffffffffffffffffffff169050600073ffffffffffffffffffffffffffffffffffffffff168173ffffffffffffffffffffffffffffffffffffffff161415610bca576040517f08c379a0000000000000000000000000000000000000000000000000000000008152600401610bc190613040565b60405180910390fd5b80915050919050565b60008073ffffffffffffffffffffffffffffffffffffffff168273ffffffffffffffffffffffffffffffffffffffff161415610c44576040517f08c379a0000000000000000000000000000000000000000000000000000000008152600401610c3b906130d2565b60405180910390fd5b600460008373ffffffffffffffffffffffffffffffffffffffff1673ffffffffffffffffffffffffffffffffffffffff168152602001908152602001600020549050919050565b60008054906101000a900473ffffffffffffffffffffffffffffffffffffffff1681565b606060028054610cbe906128b8565b80601f0160208091040260200160405190810160405280929190818152602001828054610cea906128b8565b8015610d375780601f10610d0c57610100808354040283529160200191610d37565b820191906000526020600020905b815481529060010190602001808311610d1a57829003601f168201915b5050505050905090565b610d53610d4c6112f3565b8383611b70565b5050565b610d68610d626112f3565b836113bb565b610da7576040517f08c379a0000000000000000000000000000000000000000000000000000000008152600401610d9e90612b12565b60405180910390fd5b610db384848484611cdd565b50505050565b60606000610ded610dc9846119dc565b604051602001610dd9919061313e565b604051602081830303815290604052611b3d565b9050600d8054905081610e009190612f6e565b9050600d8181548110610e1657610e15612f9f565b5b906000526020600020018054610e2b906128b8565b80601f0160208091040260200160405190810160405280929190818152602001828054610e57906128b8565b8015610ea45780601f10610e7957610100808354040283529160200191610ea4565b820191906000526020600020905b815481529060010190602001808311610e8757829003601f168201915b5050505050915050919050565b6060610ebc82611287565b610efb576040517f08c379a0000000000000000000000000000000000000000000000000000000008152600401610ef2906131d2565b60405180910390fd5b6000600760008481526020019081526020016000208054610f1b906128b8565b80601f0160208091040260200160405190810160405280929190818152602001828054610f47906128b8565b8015610f945780601f10610f6957610100808354040283529160200191610f94565b820191906000526020600020905b815481529060010190602001808311610f7757829003601f168201915b505050505090506000610fa5611d39565b9050600081511415610fbb578192505050610ffe565b600082511115610ff0578082604051602001610fd89291906131f2565b60405160208183030381529060405292505050610ffe565b610ff984611d50565b925050505b919050565b60606000611037611013846119dc565b6040516020016110239190613262565b604051602081830303815290604052611b3d565b9050600e805490508161104a9190612f6e565b9050600e81815481106110605761105f612f9f565b5b906000526020600020018054611075906128b8565b80601f01602080910402602001604051908101604052809291908181526020018280546110a1906128b8565b80156110ee5780601f106110c3576101008083540402835291602001916110ee565b820191906000526020600020905b8154815290600101906020018083116110d157829003601f168201915b5050505050915050919050565b60098054611108906128b8565b80601f0160208091040260200160405190810160405280929190818152602001828054611134906128b8565b80156111815780601f1061115657610100808354040283529160200191611181565b820191906000526020600020905b81548152906001019060200180831161116457829003601f168201915b505050505081565b6000600660008473ffffffffffffffffffffffffffffffffffffffff1673ffffffffffffffffffffffffffffffffffffffff16815260200190815260200160002060008373ffffffffffffffffffffffffffffffffffffffff1673ffffffffffffffffffffffffffffffffffffffff16815260200190815260200160002060009054906101000a900460ff16905092915050565b60007f01ffc9a7000000000000000000000000000000000000000000000000000000007bffffffffffffffffffffffffffffffffffffffffffffffffffffffff1916827bffffffffffffffffffffffffffffffffffffffffffffffffffffffff1916149050919050565b60008073ffffffffffffffffffffffffffffffffffffffff166003600084815260200190815260200160002060009054906101000a900473ffffffffffffffffffffffffffffffffffffffff1673ffffffffffffffffffffffffffffffffffffffff1614159050919050565b60006112fd611df7565b905090565b816005600083815260200190815260200160002060006101000a81548173ffffffffffffffffffffffffffffffffffffffff021916908373ffffffffffffffffffffffffffffffffffffffff160217905550808273ffffffffffffffffffffffffffffffffffffffff1661137583610b21565b73ffffffffffffffffffffffffffffffffffffffff167f8c5be1e5ebec7d5bd14f71427d1e84f3dd0314c0f7b2291e5b200ac8c7c3b92560405160405180910390a45050565b60006113c682611287565b611405576040517f08c379a00000000000000000000000000000000000000000000000000000000081526004016113fc906132f6565b60405180910390fd5b600061141083610b21565b90508073ffffffffffffffffffffffffffffffffffffffff168473ffffffffffffffffffffffffffffffffffffffff16148061147f57508373ffffffffffffffffffffffffffffffffffffffff16611467846105d0565b73ffffffffffffffffffffffffffffffffffffffff16145b80611490575061148f8185611189565b5b91505092915050565b8273ffffffffffffffffffffffffffffffffffffffff166114b982610b21565b73ffffffffffffffffffffffffffffffffffffffff161461150f576040517f08c379a000000000000000000000000000000000000000000000000000000000815260040161150690613388565b60405180910390fd5b600073ffffffffffffffffffffffffffffffffffffffff168273ffffffffffffffffffffffffffffffffffffffff16141561157f576040517f08c379a00000000000000000000000000000000000000000000000000000000081526004016115769061341a565b60405180910390fd5b61158a838383611e29565b611595600082611302565b6001600460008573ffffffffffffffffffffffffffffffffffffffff1673ffffffffffffffffffffffffffffffffffffffff16815260200190815260200160002060008282546115e59190613469565b925050819055506001600460008473ffffffffffffffffffffffffffffffffffffffff1673ffffffffffffffffffffffffffffffffffffffff168152602001908152602001600020600082825461163c919061349d565b92505081905550816003600083815260200190815260200160002060006101000a81548173ffffffffffffffffffffffffffffffffffffffff021916908373ffffffffffffffffffffffffffffffffffffffff160217905550808273ffffffffffffffffffffffffffffffffffffffff168473ffffffffffffffffffffffffffffffffffffffff167fddf252ad1be2c89b69c2b068fc378daa952ba7f163c4a11628f55a4df523b3ef60405160405180910390a4505050565b61178b81604051602401611709919061242e565b6040516020818303038152906040527f41304fac000000000000000000000000000000000000000000000000000000007bffffffffffffffffffffffffffffffffffffffffffffffffffffffff19166020820180517bffffffffffffffffffffffffffffffffffffffffffffffffffffffff8381831617835250505050611e2e565b50565b600081600001549050919050565b606060008251905060008114156117c5576040518060200160405280600081525091505061192f565b600060036002836117d6919061349d565b6117e091906134f3565b60046117ec9190613524565b905060006020826117fd919061349d565b67ffffffffffffffff8111156118165761181561269b565b5b6040519080825280601f01601f1916602001820160405280156118485781602001600182028036833780820191505090505b50905060006040518060600160405280604081526020016139bc604091399050600181016020830160005b868110156118ec5760038101905062ffffff818a015116603f8160121c168401518060081b905060ff603f83600c1c1686015116810190508060081b905060ff603f8360061c1686015116810190508060081b905060ff603f831686015116810190508060e01b90508084526004840193505050611873565b506003860660018114611906576002811461191657611921565b613d3d60f01b6002830352611921565b603d60f81b60018303525b508484525050819450505050505b919050565b61194e828260405180602001604052806000815250611e57565b5050565b61195b82611287565b61199a576040517f08c379a0000000000000000000000000000000000000000000000000000000008152600401611991906135f0565b60405180910390fd5b806007600084815260200190815260200160002090805190602001906119c1929190612223565b505050565b6001816000016000828254019250508190555050565b60606000821415611a24576040518060400160405280600181526020017f30000000000000000000000000000000000000000000000000000000000000008152509050611b38565b600082905060005b60008214611a56578080611a3f90613610565b915050600a82611a4f91906134f3565b9150611a2c565b60008167ffffffffffffffff811115611a7257611a7161269b565b5b6040519080825280601f01601f191660200182016040528015611aa45781602001600182028036833780820191505090505b5090505b60008514611b3157600182611abd9190613469565b9150600a85611acc9190612f6e565b6030611ad8919061349d565b60f81b818381518110611aee57611aed612f9f565b5b60200101907effffffffffffffffffffffffffffffffffffffffffffffffffffffffffffff1916908160001a905350600a85611b2a91906134f3565b9450611aa8565b8093505050505b919050565b600081604051602001611b509190613659565b6040516020818303038152906040528051906020012060001c9050919050565b8173ffffffffffffffffffffffffffffffffffffffff168373ffffffffffffffffffffffffffffffffffffffff161415611bdf576040517f08c379a0000000000000000000000000000000000000000000000000000000008152600401611bd6906136bc565b60405180910390fd5b80600660008573ffffffffffffffffffffffffffffffffffffffff1673ffffffffffffffffffffffffffffffffffffffff16815260200190815260200160002060008473ffffffffffffffffffffffffffffffffffffffff1673ffffffffffffffffffffffffffffffffffffffff16815260200190815260200160002060006101000a81548160ff0219169083151502179055508173ffffffffffffffffffffffffffffffffffffffff168373ffffffffffffffffffffffffffffffffffffffff167f17307eab39ab6107e8899845ad3d59bd9653f200f220920489ca2b5937696c3183604051611cd0919061237a565b60405180910390a3505050565b611ce8848484611499565b611cf484848484611eb2565b611d33576040517f08c379a0000000000000000000000000000000000000000000000000000000008152600401611d2a9061374e565b60405180910390fd5b50505050565b606060405180602001604052806000815250905090565b6060611d5b82611287565b611d9a576040517f08c379a0000000000000000000000000000000000000000000000000000000008152600401611d91906137e0565b60405180910390fd5b6000611da4611d39565b90506000815111611dc45760405180602001604052806000815250611def565b80611dce846119dc565b604051602001611ddf9291906131f2565b6040516020818303038152906040525b915050919050565b6000611e0233610ac8565b15611e1657601436033560601c9050611e25565b611e1e61203a565b9050611e26565b5b90565b505050565b60008151905060006a636f6e736f6c652e6c6f679050602083016000808483855afa5050505050565b611e618383612042565b611e6e6000848484611eb2565b611ead576040517f08c379a0000000000000000000000000000000000000000000000000000000008152600401611ea49061374e565b60405180910390fd5b505050565b6000611ed38473ffffffffffffffffffffffffffffffffffffffff16612210565b1561202d578373ffffffffffffffffffffffffffffffffffffffff1663150b7a02611efc6112f3565b8786866040518563ffffffff1660e01b8152600401611f1e9493929190613855565b6020604051808303816000875af1925050508015611f5a57506040513d601f19601f82011682018060405250810190611f5791906138b6565b60015b611fdd573d8060008114611f8a576040519150601f19603f3d011682016040523d82523d6000602084013e611f8f565b606091505b50600081511415611fd5576040517f08c379a0000000000000000000000000000000000000000000000000000000008152600401611fcc9061374e565b60405180910390fd5b805181602001fd5b63150b7a0260e01b7bffffffffffffffffffffffffffffffffffffffffffffffffffffffff1916817bffffffffffffffffffffffffffffffffffffffffffffffffffffffff191614915050612032565b600190505b949350505050565b600033905090565b600073ffffffffffffffffffffffffffffffffffffffff168273ffffffffffffffffffffffffffffffffffffffff1614156120b2576040517f08c379a00000000000000000000000000000000000000000000000000000000081526004016120a99061392f565b60405180910390fd5b6120bb81611287565b156120fb576040517f08c379a00000000000000000000000000000000000000000000000000000000081526004016120f29061399b565b60405180910390fd5b61210760008383611e29565b6001600460008473ffffffffffffffffffffffffffffffffffffffff1673ffffffffffffffffffffffffffffffffffffffff1681526020019081526020016000206000828254612157919061349d565b92505081905550816003600083815260200190815260200160002060006101000a81548173ffffffffffffffffffffffffffffffffffffffff021916908373ffffffffffffffffffffffffffffffffffffffff160217905550808273ffffffffffffffffffffffffffffffffffffffff16600073ffffffffffffffffffffffffffffffffffffffff167fddf252ad1be2c89b69c2b068fc378daa952ba7f163c4a11628f55a4df523b3ef60405160405180910390a45050565b600080823b905060008111915050919050565b82805461222f906128b8565b90600052602060002090601f0160209004810192826122515760008555612298565b82601f1061226a57805160ff1916838001178555612298565b82800160010185558215612298579182015b8281111561229757825182559160200191906001019061227c565b5b5090506122a591906122a9565b5090565b5b808211156122c25760008160009055506001016122aa565b5090565b6000604051905090565b600080fd5b600080fd5b60007fffffffff0000000000000000000000000000000000000000000000000000000082169050919050565b61230f816122da565b811461231a57600080fd5b50565b60008135905061232c81612306565b92915050565b600060208284031215612348576123476122d0565b5b60006123568482850161231d565b91505092915050565b60008115159050919050565b6123748161235f565b82525050565b600060208201905061238f600083018461236b565b92915050565b600081519050919050565b600082825260208201905092915050565b60005b838110156123cf5780820151818401526020810190506123b4565b838111156123de576000848401525b50505050565b6000601f19601f8301169050919050565b600061240082612395565b61240a81856123a0565b935061241a8185602086016123b1565b612423816123e4565b840191505092915050565b6000602082019050818103600083015261244881846123f5565b905092915050565b6000819050919050565b61246381612450565b811461246e57600080fd5b50565b6000813590506124808161245a565b92915050565b60006020828403121561249c5761249b6122d0565b5b60006124aa84828501612471565b91505092915050565b600073ffffffffffffffffffffffffffffffffffffffff82169050919050565b60006124de826124b3565b9050919050565b6124ee816124d3565b82525050565b600060208201905061250960008301846124e5565b92915050565b612518816124d3565b811461252357600080fd5b50565b6000813590506125358161250f565b92915050565b60008060408385031215612552576125516122d0565b5b600061256085828601612526565b925050602061257185828601612471565b9150509250929050565b600080600060608486031215612594576125936122d0565b5b60006125a286828701612526565b93505060206125b386828701612526565b92505060406125c486828701612471565b9150509250925092565b6125d781612450565b82525050565b60006020820190506125f260008301846125ce565b92915050565b60006020828403121561260e5761260d6122d0565b5b600061261c84828501612526565b91505092915050565b61262e8161235f565b811461263957600080fd5b50565b60008135905061264b81612625565b92915050565b60008060408385031215612668576126676122d0565b5b600061267685828601612526565b92505060206126878582860161263c565b9150509250929050565b600080fd5b600080fd5b7f4e487b7100000000000000000000000000000000000000000000000000000000600052604160045260246000fd5b6126d3826123e4565b810181811067ffffffffffffffff821117156126f2576126f161269b565b5b80604052505050565b60006127056122c6565b905061271182826126ca565b919050565b600067ffffffffffffffff8211156127315761273061269b565b5b61273a826123e4565b9050602081019050919050565b82818337600083830152505050565b600061276961276484612716565b6126fb565b90508281526020810184848401111561278557612784612696565b5b612790848285612747565b509392505050565b600082601f8301126127ad576127ac612691565b5b81356127bd848260208601612756565b91505092915050565b600080600080608085870312156127e0576127df6122d0565b5b60006127ee87828801612526565b94505060206127ff87828801612526565b935050604061281087828801612471565b925050606085013567ffffffffffffffff811115612831576128306122d5565b5b61283d87828801612798565b91505092959194509250565b600080604083850312156128605761285f6122d0565b5b600061286e85828601612526565b925050602061287f85828601612526565b9150509250929050565b7f4e487b7100000000000000000000000000000000000000000000000000000000600052602260045260246000fd5b600060028204905060018216806128d057607f821691505b602082108114156128e4576128e3612889565b5b50919050565b7f4552433732313a20617070726f76656420717565727920666f72206e6f6e657860008201527f697374656e7420746f6b656e0000000000000000000000000000000000000000602082015250565b6000612946602c836123a0565b9150612951826128ea565b604082019050919050565b6000602082019050818103600083015261297581612939565b9050919050565b7f4552433732313a20617070726f76616c20746f2063757272656e74206f776e6560008201527f7200000000000000000000000000000000000000000000000000000000000000602082015250565b60006129d86021836123a0565b91506129e38261297c565b604082019050919050565b60006020820190508181036000830152612a07816129cb565b9050919050565b7f4552433732313a20617070726f76652063616c6c6572206973206e6f74206f7760008201527f6e6572206e6f7220617070726f76656420666f7220616c6c0000000000000000602082015250565b6000612a6a6038836123a0565b9150612a7582612a0e565b604082019050919050565b60006020820190508181036000830152612a9981612a5d565b9050919050565b7f4552433732313a207472616e736665722063616c6c6572206973206e6f74206f60008201527f776e6572206e6f7220617070726f766564000000000000000000000000000000602082015250565b6000612afc6031836123a0565b9150612b0782612aa0565b604082019050919050565b60006020820190508181036000830152612b2b81612aef565b9050919050565b600081905092915050565b6000612b4882612395565b612b528185612b32565b9350612b628185602086016123b1565b80840191505092915050565b6000612b7a8286612b3d565b9150612b868285612b3d565b9150612b928284612b3d565b9150819050949350505050565b60008190508160005260206000209050919050565b60008154612bc1816128b8565b612bcb8186612b32565b94506001821660008114612be65760018114612bf757612c2a565b60ff19831686528186019350612c2a565b612c0085612b9f565b60005b83811015612c2257815481890152600182019150602081019050612c03565b838801955050505b50505092915050565b7f3c2f746578743e3c2f7376673e00000000000000000000000000000000000000600082015250565b6000612c69600d83612b32565b9150612c7482612c33565b600d82019050919050565b6000612c8b8287612bb4565b9150612c978286612b3d565b9150612ca38285612b3d565b9150612caf8284612b3d565b9150612cba82612c5c565b915081905095945050505050565b7f7b226e616d65223a202200000000000000000000000000000000000000000000600082015250565b6000612cfe600a83612b32565b9150612d0982612cc8565b600a82019050919050565b7f222c20226465736372697074696f6e223a20224120686967686c79206163636c60008201527f61696d656420636f6c6c656374696f6e20457465726e616c2057617272696f7260208201527f73222c2022696d616765223a2022646174613a696d6167652f7376672b786d6c60408201527f3b6261736536342c000000000000000000000000000000000000000000000000606082015250565b6000612dbc606883612b32565b9150612dc782612d14565b606882019050919050565b7f227d000000000000000000000000000000000000000000000000000000000000600082015250565b6000612e08600283612b32565b9150612e1382612dd2565b600282019050919050565b6000612e2982612cf1565b9150612e358285612b3d565b9150612e4082612daf565b9150612e4c8284612b3d565b9150612e5782612dfb565b91508190509392505050565b7f646174613a6170706c69636174696f6e2f6a736f6e3b6261736536342c000000600082015250565b6000612e99601d83612b32565b9150612ea482612e63565b601d82019050919050565b6000612eba82612e8c565b9150612ec68284612b3d565b915081905092915050565b7f656c656d656e7400000000000000000000000000000000000000000000000000600082015250565b6000612f07600783612b32565b9150612f1282612ed1565b600782019050919050565b6000612f2882612efa565b9150612f348284612b3d565b915081905092915050565b7f4e487b7100000000000000000000000000000000000000000000000000000000600052601260045260246000fd5b6000612f7982612450565b9150612f8483612450565b925082612f9457612f93612f3f565b5b828206905092915050565b7f4e487b7100000000000000000000000000000000000000000000000000000000600052603260045260246000fd5b7f4552433732313a206f776e657220717565727920666f72206e6f6e657869737460008201527f656e7420746f6b656e0000000000000000000000000000000000000000000000602082015250565b600061302a6029836123a0565b915061303582612fce565b604082019050919050565b600060208201905081810360008301526130598161301d565b9050919050565b7f4552433732313a2062616c616e636520717565727920666f7220746865207a6560008201527f726f206164647265737300000000000000000000000000000000000000000000602082015250565b60006130bc602a836123a0565b91506130c782613060565b604082019050919050565b600060208201905081810360008301526130eb816130af565b9050919050565b7f776561706f6e0000000000000000000000000000000000000000000000000000600082015250565b6000613128600683612b32565b9150613133826130f2565b600682019050919050565b60006131498261311b565b91506131558284612b3d565b915081905092915050565b7f45524337323155524953746f726167653a2055524920717565727920666f722060008201527f6e6f6e6578697374656e7420746f6b656e000000000000000000000000000000602082015250565b60006131bc6031836123a0565b91506131c782613160565b604082019050919050565b600060208201905081810360008301526131eb816131af565b9050919050565b60006131fe8285612b3d565b915061320a8284612b3d565b91508190509392505050565b7f72616e6b00000000000000000000000000000000000000000000000000000000600082015250565b600061324c600483612b32565b915061325782613216565b600482019050919050565b600061326d8261323f565b91506132798284612b3d565b915081905092915050565b7f4552433732313a206f70657261746f7220717565727920666f72206e6f6e657860008201527f697374656e7420746f6b656e0000000000000000000000000000000000000000602082015250565b60006132e0602c836123a0565b91506132eb82613284565b604082019050919050565b6000602082019050818103600083015261330f816132d3565b9050919050565b7f4552433732313a207472616e73666572206f6620746f6b656e2074686174206960008201527f73206e6f74206f776e0000000000000000000000000000000000000000000000602082015250565b60006133726029836123a0565b915061337d82613316565b604082019050919050565b600060208201905081810360008301526133a181613365565b9050919050565b7f4552433732313a207472616e7366657220746f20746865207a65726f2061646460008201527f7265737300000000000000000000000000000000000000000000000000000000602082015250565b60006134046024836123a0565b915061340f826133a8565b604082019050919050565b60006020820190508181036000830152613433816133f7565b9050919050565b7f4e487b7100000000000000000000000000000000000000000000000000000000600052601160045260246000fd5b600061347482612450565b915061347f83612450565b9250828210156134925761349161343a565b5b828203905092915050565b60006134a882612450565b91506134b383612450565b9250827fffffffffffffffffffffffffffffffffffffffffffffffffffffffffffffffff038211156134e8576134e761343a565b5b828201905092915050565b60006134fe82612450565b915061350983612450565b92508261351957613518612f3f565b5b828204905092915050565b600061352f82612450565b915061353a83612450565b9250817fffffffffffffffffffffffffffffffffffffffffffffffffffffffffffffffff04831182151516156135735761357261343a565b5b828202905092915050565b7f45524337323155524953746f726167653a2055524920736574206f66206e6f6e60008201527f6578697374656e7420746f6b656e000000000000000000000000000000000000602082015250565b60006135da602e836123a0565b91506135e58261357e565b604082019050919050565b60006020820190508181036000830152613609816135cd565b9050919050565b600061361b82612450565b91507fffffffffffffffffffffffffffffffffffffffffffffffffffffffffffffffff82141561364e5761364d61343a565b5b600182019050919050565b60006136658284612b3d565b915081905092915050565b7f4552433732313a20617070726f766520746f2063616c6c657200000000000000600082015250565b60006136a66019836123a0565b91506136b182613670565b602082019050919050565b600060208201905081810360008301526136d581613699565b9050919050565b7f4552433732313a207472616e7366657220746f206e6f6e20455243373231526560008201527f63656976657220696d706c656d656e7465720000000000000000000000000000602082015250565b60006137386032836123a0565b9150613743826136dc565b604082019050919050565b600060208201905081810360008301526137678161372b565b9050919050565b7f4552433732314d657461646174613a2055524920717565727920666f72206e6f60008201527f6e6578697374656e7420746f6b656e0000000000000000000000000000000000602082015250565b60006137ca602f836123a0565b91506137d58261376e565b604082019050919050565b600060208201905081810360008301526137f9816137bd565b9050919050565b600081519050919050565b600082825260208201905092915050565b600061382782613800565b613831818561380b565b93506138418185602086016123b1565b61384a816123e4565b840191505092915050565b600060808201905061386a60008301876124e5565b61387760208301866124e5565b61388460408301856125ce565b8181036060830152613896818461381c565b905095945050505050565b6000815190506138b081612306565b92915050565b6000602082840312156138cc576138cb6122d0565b5b60006138da848285016138a1565b91505092915050565b7f4552433732313a206d696e7420746f20746865207a65726f2061646472657373600082015250565b60006139196020836123a0565b9150613924826138e3565b602082019050919050565b600060208201905081810360008301526139488161390c565b9050919050565b7f4552433732313a20746f6b656e20616c7265616479206d696e74656400000000600082015250565b6000613985601c836123a0565b91506139908261394f565b602082019050919050565b600060208201905081810360008301526139b481613978565b905091905056fe4142434445464748494a4b4c4d4e4f505152535455565758595a6162636465666768696a6b6c6d6e6f707172737475767778797a303132333435363738392b2fa26469706673582212201231f8341cbbe9bc593c9859e64492e24bf359cb878a11403d4e6fcbb221dba564736f6c634300080a00333c73766720786d6c6e733d27687474703a2f2f7777772e77332e6f72672f323030302f73766727207072657365727665417370656374526174696f3d27784d696e594d696e206d656574272076696577426f783d273020302033353020333530273e3c7374796c653e2e62617365207b2066696c6c3a2077686974653b20666f6e742d66616d696c793a2073657269663b20666f6e742d73697a653a20323470783b207d3c2f7374796c653e3c726563742077696474683d273130302527206865696768743d2731303025272066696c6c3d27626c61636b27202f3e3c7465787420783d273530252720793d273530252720636c6173733d27626173652720646f6d696e616e742d626173656c696e653d276d6964646c652720746578742d616e63686f723d276d6964646c65273e",
  "linkReferences": {},
  "deployedLinkReferences": {}
}