{
  "_format": "hh-sol-artifact-1",
  "contractName": "EternalNFT",
  "sourceName": "contracts/EternalNFT.sol",
  "abi": [
    {
      "inputs": [],
      "stateMutability": "nonpayable",
      "type": "constructor"
    },
    {
      "anonymous": false,
      "inputs": [
        {
          "indexed": true,
          "internalType": "address",
          "name": "owner",
          "type": "address"
        },
        {
          "indexed": true,
          "internalType": "address",
          "name": "approved",
          "type": "address"
        },
        {
          "indexed": true,
          "internalType": "uint256",
          "name": "tokenId",
          "type": "uint256"
        }
      ],
      "name": "Approval",
      "type": "event"
    },
    {
      "anonymous": false,
      "inputs": [
        {
          "indexed": true,
          "internalType": "address",
          "name": "owner",
          "type": "address"
        },
        {
          "indexed": true,
          "internalType": "address",
          "name": "operator",
          "type": "address"
        },
        {
          "indexed": false,
          "internalType": "bool",
          "name": "approved",
          "type": "bool"
        }
      ],
      "name": "ApprovalForAll",
      "type": "event"
    },
    {
      "anonymous": false,
      "inputs": [
        {
          "indexed": false,
          "internalType": "address",
          "name": "userAddress",
          "type": "address"
        },
        {
          "indexed": false,
          "internalType": "address payable",
          "name": "relayerAddress",
          "type": "address"
        },
        {
          "indexed": false,
          "internalType": "bytes",
          "name": "functionSignature",
          "type": "bytes"
        }
      ],
      "name": "MetaTransactionExecuted",
      "type": "event"
    },
    {
      "anonymous": false,
      "inputs": [
        {
          "indexed": true,
          "internalType": "address",
          "name": "from",
          "type": "address"
        },
        {
          "indexed": true,
          "internalType": "address",
          "name": "to",
          "type": "address"
        },
        {
          "indexed": true,
          "internalType": "uint256",
          "name": "tokenId",
          "type": "uint256"
        }
      ],
      "name": "Transfer",
      "type": "event"
    },
    {
      "inputs": [
        {
          "internalType": "address",
          "name": "to",
          "type": "address"
        },
        {
          "internalType": "uint256",
          "name": "tokenId",
          "type": "uint256"
        }
      ],
      "name": "approve",
      "outputs": [],
      "stateMutability": "nonpayable",
      "type": "function"
    },
    {
      "inputs": [
        {
          "internalType": "address",
          "name": "owner",
          "type": "address"
        }
      ],
      "name": "balanceOf",
      "outputs": [
        {
          "internalType": "uint256",
          "name": "",
          "type": "uint256"
        }
      ],
      "stateMutability": "view",
      "type": "function"
    },
    {
      "inputs": [],
      "name": "collectionName",
      "outputs": [
        {
          "internalType": "string",
          "name": "",
          "type": "string"
        }
      ],
      "stateMutability": "view",
      "type": "function"
    },
    {
      "inputs": [],
      "name": "collectionSymbol",
      "outputs": [
        {
          "internalType": "string",
          "name": "",
          "type": "string"
        }
      ],
      "stateMutability": "view",
      "type": "function"
    },
    {
      "inputs": [],
      "name": "createEternalNFT",
      "outputs": [
        {
          "internalType": "uint256",
          "name": "",
          "type": "uint256"
        }
      ],
      "stateMutability": "nonpayable",
      "type": "function"
    },
    {
      "inputs": [
        {
          "internalType": "address",
          "name": "userAddress",
          "type": "address"
        },
        {
          "internalType": "bytes",
          "name": "functionSignature",
          "type": "bytes"
        },
        {
          "internalType": "bytes32",
          "name": "sigR",
          "type": "bytes32"
        },
        {
          "internalType": "bytes32",
          "name": "sigS",
          "type": "bytes32"
        },
        {
          "internalType": "uint8",
          "name": "sigV",
          "type": "uint8"
        }
      ],
      "name": "executeMetaTransaction",
      "outputs": [
        {
          "internalType": "bytes",
          "name": "",
          "type": "bytes"
        }
      ],
      "stateMutability": "payable",
      "type": "function"
    },
    {
      "inputs": [
        {
          "internalType": "uint256",
          "name": "tokenId",
          "type": "uint256"
        }
      ],
      "name": "getApproved",
      "outputs": [
        {
          "internalType": "address",
          "name": "",
          "type": "address"
        }
      ],
      "stateMutability": "view",
      "type": "function"
    },
    {
      "inputs": [
        {
          "internalType": "address",
          "name": "user",
          "type": "address"
        }
      ],
      "name": "getNonce",
      "outputs": [
        {
          "internalType": "uint256",
          "name": "nonce",
          "type": "uint256"
        }
      ],
      "stateMutability": "view",
      "type": "function"
    },
    {
      "inputs": [
        {
          "internalType": "address",
          "name": "owner",
          "type": "address"
        },
        {
          "internalType": "address",
          "name": "operator",
          "type": "address"
        }
      ],
      "name": "isApprovedForAll",
      "outputs": [
        {
          "internalType": "bool",
          "name": "",
          "type": "bool"
        }
      ],
      "stateMutability": "view",
      "type": "function"
    },
    {
      "inputs": [],
      "name": "name",
      "outputs": [
        {
          "internalType": "string",
          "name": "",
          "type": "string"
        }
      ],
      "stateMutability": "view",
      "type": "function"
    },
    {
      "inputs": [
        {
          "internalType": "uint256",
          "name": "tokenId",
          "type": "uint256"
        }
      ],
      "name": "ownerOf",
      "outputs": [
        {
          "internalType": "address",
          "name": "",
          "type": "address"
        }
      ],
      "stateMutability": "view",
      "type": "function"
    },
    {
      "inputs": [
        {
          "internalType": "uint256",
          "name": "tokenId",
          "type": "uint256"
        }
      ],
      "name": "pickFirstWord",
      "outputs": [
        {
          "internalType": "string",
          "name": "",
          "type": "string"
        }
      ],
      "stateMutability": "view",
      "type": "function"
    },
    {
      "inputs": [
        {
          "internalType": "uint256",
          "name": "tokenId",
          "type": "uint256"
        }
      ],
      "name": "pickSecondWord",
      "outputs": [
        {
          "internalType": "string",
          "name": "",
          "type": "string"
        }
      ],
      "stateMutability": "view",
      "type": "function"
    },
    {
      "inputs": [
        {
          "internalType": "uint256",
          "name": "tokenId",
          "type": "uint256"
        }
      ],
      "name": "pickThirdWord",
      "outputs": [
        {
          "internalType": "string",
          "name": "",
          "type": "string"
        }
      ],
      "stateMutability": "view",
      "type": "function"
    },
    {
      "inputs": [
        {
          "internalType": "address",
          "name": "from",
          "type": "address"
        },
        {
          "internalType": "address",
          "name": "to",
          "type": "address"
        },
        {
          "internalType": "uint256",
          "name": "tokenId",
          "type": "uint256"
        }
      ],
      "name": "safeTransferFrom",
      "outputs": [],
      "stateMutability": "nonpayable",
      "type": "function"
    },
    {
      "inputs": [
        {
          "internalType": "address",
          "name": "from",
          "type": "address"
        },
        {
          "internalType": "address",
          "name": "to",
          "type": "address"
        },
        {
          "internalType": "uint256",
          "name": "tokenId",
          "type": "uint256"
        },
        {
          "internalType": "bytes",
          "name": "_data",
          "type": "bytes"
        }
      ],
      "name": "safeTransferFrom",
      "outputs": [],
      "stateMutability": "nonpayable",
      "type": "function"
    },
    {
      "inputs": [
        {
          "internalType": "address",
          "name": "operator",
          "type": "address"
        },
        {
          "internalType": "bool",
          "name": "approved",
          "type": "bool"
        }
      ],
      "name": "setApprovalForAll",
      "outputs": [],
      "stateMutability": "nonpayable",
      "type": "function"
    },
    {
      "inputs": [
        {
          "internalType": "bytes4",
          "name": "interfaceId",
          "type": "bytes4"
        }
      ],
      "name": "supportsInterface",
      "outputs": [
        {
          "internalType": "bool",
          "name": "",
          "type": "bool"
        }
      ],
      "stateMutability": "view",
      "type": "function"
    },
    {
      "inputs": [],
      "name": "symbol",
      "outputs": [
        {
          "internalType": "string",
          "name": "",
          "type": "string"
        }
      ],
      "stateMutability": "view",
      "type": "function"
    },
    {
      "inputs": [
        {
          "internalType": "uint256",
          "name": "tokenId",
          "type": "uint256"
        }
      ],
      "name": "tokenURI",
      "outputs": [
        {
          "internalType": "string",
          "name": "",
          "type": "string"
        }
      ],
      "stateMutability": "view",
      "type": "function"
    },
    {
      "inputs": [
        {
          "internalType": "address",
          "name": "from",
          "type": "address"
        },
        {
          "internalType": "address",
          "name": "to",
          "type": "address"
        },
        {
          "internalType": "uint256",
          "name": "tokenId",
          "type": "uint256"
        }
      ],
      "name": "transferFrom",
      "outputs": [],
      "stateMutability": "nonpayable",
      "type": "function"
    }
  ],
  "bytecode": "0x608060405260405180610160016040528061012f8152602001620051f761012f9139600c9080519060200190620000389291906200088d565b506040518060e001604052806040518060400160405280600481526020017f466972650000000000000000000000000000000000000000000000000000000081525081526020016040518060400160405280600481526020017f57696e640000000000000000000000000000000000000000000000000000000081525081526020016040518060400160405280600481526020017f576176650000000000000000000000000000000000000000000000000000000081525081526020016040518060400160405280600581526020017f456172746800000000000000000000000000000000000000000000000000000081525081526020016040518060400160405280600781526020017f5468756e6465720000000000000000000000000000000000000000000000000081525081526020016040518060400160405280600581526020017f537061636500000000000000000000000000000000000000000000000000000081525081526020016040518060400160405280600481526020017f54696d6500000000000000000000000000000000000000000000000000000000815250815250600d906007620001f19291906200091e565b506040518060e001604052806040518060400160405280600581526020017f53776f726400000000000000000000000000000000000000000000000000000081525081526020016040518060400160405280600581526020017f537065617200000000000000000000000000000000000000000000000000000081525081526020016040518060400160405280600681526020017f536869656c64000000000000000000000000000000000000000000000000000081525081526020016040518060400160405280600681526020017f48616d6d6572000000000000000000000000000000000000000000000000000081525081526020016040518060400160405280600581526020017f536162657200000000000000000000000000000000000000000000000000000081525081526020016040518060400160405280600381526020017f417865000000000000000000000000000000000000000000000000000000000081525081526020016040518060400160405280600381526020017f426f770000000000000000000000000000000000000000000000000000000000815250815250600e906007620003aa9291906200091e565b506040518060e001604052806040518060400160405280600481526020017f4c6f72640000000000000000000000000000000000000000000000000000000081525081526020016040518060400160405280600481526020017f4b696e670000000000000000000000000000000000000000000000000000000081525081526020016040518060400160405280600781526020017f456d7065726f720000000000000000000000000000000000000000000000000081525081526020016040518060400160405280600981526020017f56656e657261626c65000000000000000000000000000000000000000000000081525081526020016040518060400160405280600881526020017f416e636573746f7200000000000000000000000000000000000000000000000081525081526020016040518060400160405280600581526020017f5361696e7400000000000000000000000000000000000000000000000000000081525081526020016040518060400160405280600381526020017f476f640000000000000000000000000000000000000000000000000000000000815250815250600f906007620005639291906200091e565b503480156200057157600080fd5b506040518060400160405280600a81526020017f457465726e616c4e4654000000000000000000000000000000000000000000008152506040518060400160405280600181526020017f310000000000000000000000000000000000000000000000000000000000000081525081816040518060400160405280600a81526020017f457465726e616c4e4654000000000000000000000000000000000000000000008152506040518060400160405280600481526020017f454e4654000000000000000000000000000000000000000000000000000000008152508160009080519060200190620006649291906200088d565b5080600190805190602001906200067d9291906200088d565b5050506040518060800160405280604f8152602001620051a8604f9139805190602001208280519060200120828051906020012030620006c26200075160201b60201c565b60001b604051602001620006db95949392919062000a72565b60405160208183030381529060405280519060200120600781905550505050506200070b6200075960201b60201c565b600a9080519060200190620007229291906200088d565b5062000733620007f360201b60201c565b600b90805190602001906200074a9291906200088d565b5062000b34565b600046905090565b6060600080546200076a9062000afe565b80601f0160208091040260200160405190810160405280929190818152602001828054620007989062000afe565b8015620007e95780601f10620007bd57610100808354040283529160200191620007e9565b820191906000526020600020905b815481529060010190602001808311620007cb57829003601f168201915b5050505050905090565b606060018054620008049062000afe565b80601f0160208091040260200160405190810160405280929190818152602001828054620008329062000afe565b8015620008835780601f10620008575761010080835404028352916020019162000883565b820191906000526020600020905b8154815290600101906020018083116200086557829003601f168201915b5050505050905090565b8280546200089b9062000afe565b90600052602060002090601f016020900481019282620008bf57600085556200090b565b82601f10620008da57805160ff19168380011785556200090b565b828001600101855582156200090b579182015b828111156200090a578251825591602001919060010190620008ed565b5b5090506200091a919062000985565b5090565b82805482825590600052602060002090810192821562000972579160200282015b8281111562000971578251829080519060200190620009609291906200088d565b50916020019190600101906200093f565b5b509050620009819190620009a4565b5090565b5b80821115620009a057600081600090555060010162000986565b5090565b5b80821115620009c85760008181620009be9190620009cc565b50600101620009a5565b5090565b508054620009da9062000afe565b6000825580601f10620009ee575062000a0f565b601f01602090049060005260206000209081019062000a0e919062000985565b5b50565b6000819050919050565b62000a278162000a12565b82525050565b600073ffffffffffffffffffffffffffffffffffffffff82169050919050565b600062000a5a8262000a2d565b9050919050565b62000a6c8162000a4d565b82525050565b600060a08201905062000a89600083018862000a1c565b62000a98602083018762000a1c565b62000aa7604083018662000a1c565b62000ab6606083018562000a61565b62000ac5608083018462000a1c565b9695505050505050565b7f4e487b7100000000000000000000000000000000000000000000000000000000600052602260045260246000fd5b6000600282049050600182168062000b1757607f821691505b6020821081141562000b2e5762000b2d62000acf565b5b50919050565b6146648062000b446000396000f3fe60806040526004361061012a5760003560e01c806342842e0e116100ab578063b88d4fde1161006f578063b88d4fde1461041d578063c630338614610446578063c87b56dd14610483578063e2d2c308146104c0578063e5326ab1146104fd578063e985e9c5146105285761012a565b806342842e0e146103265780636352211e1461034f57806370a082311461038c57806395d89b41146103c9578063a22cb465146103f45761012a565b806323b872dd116100f257806323b872dd1461022d5780632d0335ab146102565780632f39352a146102935780633330880e146102be5780633bad0d36146102e95761012a565b806301ffc9a71461012f57806306fdde031461016c578063081812fc14610197578063095ea7b3146101d45780630c53c51c146101fd575b600080fd5b34801561013b57600080fd5b5061015660048036038101906101519190612990565b610565565b60405161016391906129d8565b60405180910390f35b34801561017857600080fd5b50610181610647565b60405161018e9190612a8c565b60405180910390f35b3480156101a357600080fd5b506101be60048036038101906101b99190612ae4565b6106d9565b6040516101cb9190612b52565b60405180910390f35b3480156101e057600080fd5b506101fb60048036038101906101f69190612b99565b61075e565b005b61021760048036038101906102129190612d7d565b610876565b6040516102249190612e69565b60405180910390f35b34801561023957600080fd5b50610254600480360381019061024f9190612e8b565b610b9b565b005b34801561026257600080fd5b5061027d60048036038101906102789190612ede565b610bfb565b60405161028a9190612f1a565b60405180910390f35b34801561029f57600080fd5b506102a8610c44565b6040516102b59190612a8c565b60405180910390f35b3480156102ca57600080fd5b506102d3610cd2565b6040516102e09190612f1a565b60405180910390f35b3480156102f557600080fd5b50610310600480360381019061030b9190612ae4565b610e27565b60405161031d9190612a8c565b60405180910390f35b34801561033257600080fd5b5061034d60048036038101906103489190612e8b565b610f1f565b005b34801561035b57600080fd5b5061037660048036038101906103719190612ae4565b610f3f565b6040516103839190612b52565b60405180910390f35b34801561039857600080fd5b506103b360048036038101906103ae9190612ede565b610ff1565b6040516103c09190612f1a565b60405180910390f35b3480156103d557600080fd5b506103de6110a9565b6040516103eb9190612a8c565b60405180910390f35b34801561040057600080fd5b5061041b60048036038101906104169190612f61565b61113b565b005b34801561042957600080fd5b50610444600480360381019061043f9190612fa1565b611151565b005b34801561045257600080fd5b5061046d60048036038101906104689190612ae4565b6111b3565b60405161047a9190612a8c565b60405180910390f35b34801561048f57600080fd5b506104aa60048036038101906104a59190612ae4565b6112ab565b6040516104b79190612a8c565b60405180910390f35b3480156104cc57600080fd5b506104e760048036038101906104e29190612ae4565b6113fd565b6040516104f49190612a8c565b60405180910390f35b34801561050957600080fd5b506105126114f5565b60405161051f9190612a8c565b60405180910390f35b34801561053457600080fd5b5061054f600480360381019061054a9190613024565b611583565b60405161055c91906129d8565b60405180910390f35b60007f80ac58cd000000000000000000000000000000000000000000000000000000007bffffffffffffffffffffffffffffffffffffffffffffffffffffffff1916827bffffffffffffffffffffffffffffffffffffffffffffffffffffffff1916148061063057507f5b5e139f000000000000000000000000000000000000000000000000000000007bffffffffffffffffffffffffffffffffffffffffffffffffffffffff1916827bffffffffffffffffffffffffffffffffffffffffffffffffffffffff1916145b80610640575061063f82611617565b5b9050919050565b60606000805461065690613093565b80601f016020809104026020016040519081016040528092919081815260200182805461068290613093565b80156106cf5780601f106106a4576101008083540402835291602001916106cf565b820191906000526020600020905b8154815290600101906020018083116106b257829003601f168201915b5050505050905090565b60006106e482611681565b610723576040517f08c379a000000000000000000000000000000000000000000000000000000000815260040161071a90613137565b60405180910390fd5b6004600083815260200190815260200160002060009054906101000a900473ffffffffffffffffffffffffffffffffffffffff169050919050565b600061076982610f3f565b90508073ffffffffffffffffffffffffffffffffffffffff168373ffffffffffffffffffffffffffffffffffffffff1614156107da576040517f08c379a00000000000000000000000000000000000000000000000000000000081526004016107d1906131c9565b60405180910390fd5b8073ffffffffffffffffffffffffffffffffffffffff166107f96116ed565b73ffffffffffffffffffffffffffffffffffffffff1614806108285750610827816108226116ed565b611583565b5b610867576040517f08c379a000000000000000000000000000000000000000000000000000000000815260040161085e9061325b565b60405180910390fd5b61087183836116f5565b505050565b60606000610883866117ae565b90506000357fffffffff00000000000000000000000000000000000000000000000000000000167bffffffffffffffffffffffffffffffffffffffffffffffffffffffff1916817bffffffffffffffffffffffffffffffffffffffffffffffffffffffff1916141561092a576040517f08c379a0000000000000000000000000000000000000000000000000000000008152600401610921906132ed565b60405180910390fd5b60006040518060600160405280600860008b73ffffffffffffffffffffffffffffffffffffffff1673ffffffffffffffffffffffffffffffffffffffff1681526020019081526020016000205481526020018973ffffffffffffffffffffffffffffffffffffffff1681526020018881525090506109ab88828888886117d2565b6109ea576040517f08c379a00000000000000000000000000000000000000000000000000000000081526004016109e19061337f565b60405180910390fd5b610a3d6001600860008b73ffffffffffffffffffffffffffffffffffffffff1673ffffffffffffffffffffffffffffffffffffffff168152602001908152602001600020546118e190919063ffffffff16565b600860008a73ffffffffffffffffffffffffffffffffffffffff1673ffffffffffffffffffffffffffffffffffffffff168152602001908152602001600020819055506000803073ffffffffffffffffffffffffffffffffffffffff16898b604051602001610aad929190613423565b604051602081830303815290604052604051610ac9919061344b565b6000604051808303816000865af19150503d8060008114610b06576040519150601f19603f3d011682016040523d82523d6000602084013e610b0b565b606091505b509150915081610b50576040517f08c379a0000000000000000000000000000000000000000000000000000000008152600401610b47906134ae565b60405180910390fd5b7f5845892132946850460bff5a0083f71031bc5bf9aadcd40f1de79423eac9b10b8a338b604051610b83939291906134ef565b60405180910390a18094505050505095945050505050565b610bac610ba66116ed565b826118f7565b610beb576040517f08c379a0000000000000000000000000000000000000000000000000000000008152600401610be29061359f565b60405180910390fd5b610bf68383836119d5565b505050565b6000600860008373ffffffffffffffffffffffffffffffffffffffff1673ffffffffffffffffffffffffffffffffffffffff168152602001908152602001600020549050919050565b600b8054610c5190613093565b80601f0160208091040260200160405190810160405280929190818152602001828054610c7d90613093565b8015610cca5780601f10610c9f57610100808354040283529160200191610cca565b820191906000526020600020905b815481529060010190602001808311610cad57829003601f168201915b505050505081565b6000610d126040518060400160405280601381526020017f4372656174696e6720457465726e616c4e465400000000000000000000000000815250611c31565b6000610d1e6009611cca565b90506000610d2b82610e27565b90506000610d38836111b3565b90506000610d45846113fd565b90506000838383604051602001610d5e939291906135fb565b60405160208183030381529060405290506000600c858585604051602001610d89949392919061370c565b60405160208183030381529060405290506000610dce83610da984611cd8565b604051602001610dba9291906138ab565b604051602081830303815290604052611cd8565b9050600081604051602001610de3919061393c565b6040516020818303038152906040529050610e05610dff611e70565b89611f21565b610e0f8882611f3f565b610e196009611fb3565b879850505050505050505090565b60606000610e5b610e3784611fc9565b604051602001610e4791906139aa565b60405160208183030381529060405261212a565b9050600d8054905081610e6e91906139fb565b9050600d8181548110610e8457610e83613a2c565b5b906000526020600020018054610e9990613093565b80601f0160208091040260200160405190810160405280929190818152602001828054610ec590613093565b8015610f125780601f10610ee757610100808354040283529160200191610f12565b820191906000526020600020905b815481529060010190602001808311610ef557829003601f168201915b5050505050915050919050565b610f3a83838360405180602001604052806000815250611151565b505050565b6000806002600084815260200190815260200160002060009054906101000a900473ffffffffffffffffffffffffffffffffffffffff169050600073ffffffffffffffffffffffffffffffffffffffff168173ffffffffffffffffffffffffffffffffffffffff161415610fe8576040517f08c379a0000000000000000000000000000000000000000000000000000000008152600401610fdf90613acd565b60405180910390fd5b80915050919050565b60008073ffffffffffffffffffffffffffffffffffffffff168273ffffffffffffffffffffffffffffffffffffffff161415611062576040517f08c379a000000000000000000000000000000000000000000000000000000000815260040161105990613b5f565b60405180910390fd5b600360008373ffffffffffffffffffffffffffffffffffffffff1673ffffffffffffffffffffffffffffffffffffffff168152602001908152602001600020549050919050565b6060600180546110b890613093565b80601f01602080910402602001604051908101604052809291908181526020018280546110e490613093565b80156111315780601f1061110657610100808354040283529160200191611131565b820191906000526020600020905b81548152906001019060200180831161111457829003601f168201915b5050505050905090565b61114d6111466116ed565b838361215d565b5050565b61116261115c6116ed565b836118f7565b6111a1576040517f08c379a00000000000000000000000000000000000000000000000000000000081526004016111989061359f565b60405180910390fd5b6111ad848484846122ca565b50505050565b606060006111e76111c384611fc9565b6040516020016111d39190613bcb565b60405160208183030381529060405261212a565b9050600e80549050816111fa91906139fb565b9050600e81815481106112105761120f613a2c565b5b90600052602060002001805461122590613093565b80601f016020809104026020016040519081016040528092919081815260200182805461125190613093565b801561129e5780601f106112735761010080835404028352916020019161129e565b820191906000526020600020905b81548152906001019060200180831161128157829003601f168201915b5050505050915050919050565b60606112b682611681565b6112f5576040517f08c379a00000000000000000000000000000000000000000000000000000000081526004016112ec90613c5f565b60405180910390fd5b600060066000848152602001908152602001600020805461131590613093565b80601f016020809104026020016040519081016040528092919081815260200182805461134190613093565b801561138e5780601f106113635761010080835404028352916020019161138e565b820191906000526020600020905b81548152906001019060200180831161137157829003601f168201915b50505050509050600061139f612326565b90506000815114156113b55781925050506113f8565b6000825111156113ea5780826040516020016113d2929190613c7f565b604051602081830303815290604052925050506113f8565b6113f38461233d565b925050505b919050565b6060600061143161140d84611fc9565b60405160200161141d9190613cef565b60405160208183030381529060405261212a565b9050600f805490508161144491906139fb565b9050600f818154811061145a57611459613a2c565b5b90600052602060002001805461146f90613093565b80601f016020809104026020016040519081016040528092919081815260200182805461149b90613093565b80156114e85780601f106114bd576101008083540402835291602001916114e8565b820191906000526020600020905b8154815290600101906020018083116114cb57829003601f168201915b5050505050915050919050565b600a805461150290613093565b80601f016020809104026020016040519081016040528092919081815260200182805461152e90613093565b801561157b5780601f106115505761010080835404028352916020019161157b565b820191906000526020600020905b81548152906001019060200180831161155e57829003601f168201915b505050505081565b6000600560008473ffffffffffffffffffffffffffffffffffffffff1673ffffffffffffffffffffffffffffffffffffffff16815260200190815260200160002060008373ffffffffffffffffffffffffffffffffffffffff1673ffffffffffffffffffffffffffffffffffffffff16815260200190815260200160002060009054906101000a900460ff16905092915050565b60007f01ffc9a7000000000000000000000000000000000000000000000000000000007bffffffffffffffffffffffffffffffffffffffffffffffffffffffff1916827bffffffffffffffffffffffffffffffffffffffffffffffffffffffff1916149050919050565b60008073ffffffffffffffffffffffffffffffffffffffff166002600084815260200190815260200160002060009054906101000a900473ffffffffffffffffffffffffffffffffffffffff1673ffffffffffffffffffffffffffffffffffffffff1614159050919050565b600033905090565b816004600083815260200190815260200160002060006101000a81548173ffffffffffffffffffffffffffffffffffffffff021916908373ffffffffffffffffffffffffffffffffffffffff160217905550808273ffffffffffffffffffffffffffffffffffffffff1661176883610f3f565b73ffffffffffffffffffffffffffffffffffffffff167f8c5be1e5ebec7d5bd14f71427d1e84f3dd0314c0f7b2291e5b200ac8c7c3b92560405160405180910390a45050565b600080825114156117c557600060e01b90506117cd565b602082015190505b919050565b60008060016117e86117e3886123e4565b61244c565b848787604051600081526020016040526040516118089493929190613d2f565b6020604051602081039080840390855afa15801561182a573d6000803e3d6000fd5b505050602060405103519050600073ffffffffffffffffffffffffffffffffffffffff168173ffffffffffffffffffffffffffffffffffffffff1614156118a6576040517f08c379a000000000000000000000000000000000000000000000000000000000815260040161189d90613dc0565b60405180910390fd5b8673ffffffffffffffffffffffffffffffffffffffff168173ffffffffffffffffffffffffffffffffffffffff161491505095945050505050565b600081836118ef9190613e0f565b905092915050565b600061190282611681565b611941576040517f08c379a000000000000000000000000000000000000000000000000000000000815260040161193890613ed7565b60405180910390fd5b600061194c83610f3f565b90508073ffffffffffffffffffffffffffffffffffffffff168473ffffffffffffffffffffffffffffffffffffffff1614806119bb57508373ffffffffffffffffffffffffffffffffffffffff166119a3846106d9565b73ffffffffffffffffffffffffffffffffffffffff16145b806119cc57506119cb8185611583565b5b91505092915050565b8273ffffffffffffffffffffffffffffffffffffffff166119f582610f3f565b73ffffffffffffffffffffffffffffffffffffffff1614611a4b576040517f08c379a0000000000000000000000000000000000000000000000000000000008152600401611a4290613f69565b60405180910390fd5b600073ffffffffffffffffffffffffffffffffffffffff168273ffffffffffffffffffffffffffffffffffffffff161415611abb576040517f08c379a0000000000000000000000000000000000000000000000000000000008152600401611ab290613ffb565b60405180910390fd5b611ac6838383612485565b611ad16000826116f5565b6001600360008573ffffffffffffffffffffffffffffffffffffffff1673ffffffffffffffffffffffffffffffffffffffff1681526020019081526020016000206000828254611b21919061401b565b925050819055506001600360008473ffffffffffffffffffffffffffffffffffffffff1673ffffffffffffffffffffffffffffffffffffffff1681526020019081526020016000206000828254611b789190613e0f565b92505081905550816002600083815260200190815260200160002060006101000a81548173ffffffffffffffffffffffffffffffffffffffff021916908373ffffffffffffffffffffffffffffffffffffffff160217905550808273ffffffffffffffffffffffffffffffffffffffff168473ffffffffffffffffffffffffffffffffffffffff167fddf252ad1be2c89b69c2b068fc378daa952ba7f163c4a11628f55a4df523b3ef60405160405180910390a4505050565b611cc781604051602401611c459190612a8c565b6040516020818303038152906040527f41304fac000000000000000000000000000000000000000000000000000000007bffffffffffffffffffffffffffffffffffffffffffffffffffffffff19166020820180517bffffffffffffffffffffffffffffffffffffffffffffffffffffffff838183161783525050505061248a565b50565b600081600001549050919050565b60606000825190506000811415611d015760405180602001604052806000815250915050611e6b565b60006003600283611d129190613e0f565b611d1c919061404f565b6004611d289190614080565b90506000602082611d399190613e0f565b67ffffffffffffffff811115611d5257611d51612be3565b5b6040519080825280601f01601f191660200182016040528015611d845781602001600182028036833780820191505090505b50905060006040518060600160405280604081526020016145ef604091399050600181016020830160005b86811015611e285760038101905062ffffff818a015116603f8160121c168401518060081b905060ff603f83600c1c1686015116810190508060081b905060ff603f8360061c1686015116810190508060081b905060ff603f831686015116810190508060e01b90508084526004840193505050611daf565b506003860660018114611e425760028114611e5257611e5d565b613d3d60f01b6002830352611e5d565b603d60f81b60018303525b508484525050819450505050505b919050565b60003073ffffffffffffffffffffffffffffffffffffffff163373ffffffffffffffffffffffffffffffffffffffff161415611f1a57600080368080601f016020809104026020016040519081016040528093929190818152602001838380828437600081840152601f19601f820116905080830192505050505050509050600080369050905073ffffffffffffffffffffffffffffffffffffffff818301511692505050611f1e565b3390505b90565b611f3b8282604051806020016040528060008152506124b3565b5050565b611f4882611681565b611f87576040517f08c379a0000000000000000000000000000000000000000000000000000000008152600401611f7e9061414c565b60405180910390fd5b80600660008481526020019081526020016000209080519060200190611fae929190612881565b505050565b6001816000016000828254019250508190555050565b60606000821415612011576040518060400160405280600181526020017f30000000000000000000000000000000000000000000000000000000000000008152509050612125565b600082905060005b6000821461204357808061202c9061416c565b915050600a8261203c919061404f565b9150612019565b60008167ffffffffffffffff81111561205f5761205e612be3565b5b6040519080825280601f01601f1916602001820160405280156120915781602001600182028036833780820191505090505b5090505b6000851461211e576001826120aa919061401b565b9150600a856120b991906139fb565b60306120c59190613e0f565b60f81b8183815181106120db576120da613a2c565b5b60200101907effffffffffffffffffffffffffffffffffffffffffffffffffffffffffffff1916908160001a905350600a85612117919061404f565b9450612095565b8093505050505b919050565b60008160405160200161213d91906141b5565b6040516020818303038152906040528051906020012060001c9050919050565b8173ffffffffffffffffffffffffffffffffffffffff168373ffffffffffffffffffffffffffffffffffffffff1614156121cc576040517f08c379a00000000000000000000000000000000000000000000000000000000081526004016121c390614218565b60405180910390fd5b80600560008573ffffffffffffffffffffffffffffffffffffffff1673ffffffffffffffffffffffffffffffffffffffff16815260200190815260200160002060008473ffffffffffffffffffffffffffffffffffffffff1673ffffffffffffffffffffffffffffffffffffffff16815260200190815260200160002060006101000a81548160ff0219169083151502179055508173ffffffffffffffffffffffffffffffffffffffff168373ffffffffffffffffffffffffffffffffffffffff167f17307eab39ab6107e8899845ad3d59bd9653f200f220920489ca2b5937696c31836040516122bd91906129d8565b60405180910390a3505050565b6122d58484846119d5565b6122e18484848461250e565b612320576040517f08c379a0000000000000000000000000000000000000000000000000000000008152600401612317906142aa565b60405180910390fd5b50505050565b606060405180602001604052806000815250905090565b606061234882611681565b612387576040517f08c379a000000000000000000000000000000000000000000000000000000000815260040161237e9061433c565b60405180910390fd5b6000612391612326565b905060008151116123b157604051806020016040528060008152506123dc565b806123bb84611fc9565b6040516020016123cc929190613c7f565b6040516020818303038152906040525b915050919050565b60006040518060800160405280604381526020016145ac60439139805190602001208260000151836020015184604001518051906020012060405160200161242f949392919061435c565b604051602081830303815290604052805190602001209050919050565b6000612456612696565b8260405160200161246892919061440e565b604051602081830303815290604052805190602001209050919050565b505050565b60008151905060006a636f6e736f6c652e6c6f679050602083016000808483855afa5050505050565b6124bd83836126a0565b6124ca600084848461250e565b612509576040517f08c379a0000000000000000000000000000000000000000000000000000000008152600401612500906142aa565b60405180910390fd5b505050565b600061252f8473ffffffffffffffffffffffffffffffffffffffff1661286e565b15612689578373ffffffffffffffffffffffffffffffffffffffff1663150b7a026125586116ed565b8786866040518563ffffffff1660e01b815260040161257a9493929190614445565b6020604051808303816000875af19250505080156125b657506040513d601f19601f820116820180604052508101906125b391906144a6565b60015b612639573d80600081146125e6576040519150601f19603f3d011682016040523d82523d6000602084013e6125eb565b606091505b50600081511415612631576040517f08c379a0000000000000000000000000000000000000000000000000000000008152600401612628906142aa565b60405180910390fd5b805181602001fd5b63150b7a0260e01b7bffffffffffffffffffffffffffffffffffffffffffffffffffffffff1916817bffffffffffffffffffffffffffffffffffffffffffffffffffffffff19161491505061268e565b600190505b949350505050565b6000600754905090565b600073ffffffffffffffffffffffffffffffffffffffff168273ffffffffffffffffffffffffffffffffffffffff161415612710576040517f08c379a00000000000000000000000000000000000000000000000000000000081526004016127079061451f565b60405180910390fd5b61271981611681565b15612759576040517f08c379a00000000000000000000000000000000000000000000000000000000081526004016127509061458b565b60405180910390fd5b61276560008383612485565b6001600360008473ffffffffffffffffffffffffffffffffffffffff1673ffffffffffffffffffffffffffffffffffffffff16815260200190815260200160002060008282546127b59190613e0f565b92505081905550816002600083815260200190815260200160002060006101000a81548173ffffffffffffffffffffffffffffffffffffffff021916908373ffffffffffffffffffffffffffffffffffffffff160217905550808273ffffffffffffffffffffffffffffffffffffffff16600073ffffffffffffffffffffffffffffffffffffffff167fddf252ad1be2c89b69c2b068fc378daa952ba7f163c4a11628f55a4df523b3ef60405160405180910390a45050565b600080823b905060008111915050919050565b82805461288d90613093565b90600052602060002090601f0160209004810192826128af57600085556128f6565b82601f106128c857805160ff19168380011785556128f6565b828001600101855582156128f6579182015b828111156128f55782518255916020019190600101906128da565b5b5090506129039190612907565b5090565b5b80821115612920576000816000905550600101612908565b5090565b6000604051905090565b600080fd5b600080fd5b60007fffffffff0000000000000000000000000000000000000000000000000000000082169050919050565b61296d81612938565b811461297857600080fd5b50565b60008135905061298a81612964565b92915050565b6000602082840312156129a6576129a561292e565b5b60006129b48482850161297b565b91505092915050565b60008115159050919050565b6129d2816129bd565b82525050565b60006020820190506129ed60008301846129c9565b92915050565b600081519050919050565b600082825260208201905092915050565b60005b83811015612a2d578082015181840152602081019050612a12565b83811115612a3c576000848401525b50505050565b6000601f19601f8301169050919050565b6000612a5e826129f3565b612a6881856129fe565b9350612a78818560208601612a0f565b612a8181612a42565b840191505092915050565b60006020820190508181036000830152612aa68184612a53565b905092915050565b6000819050919050565b612ac181612aae565b8114612acc57600080fd5b50565b600081359050612ade81612ab8565b92915050565b600060208284031215612afa57612af961292e565b5b6000612b0884828501612acf565b91505092915050565b600073ffffffffffffffffffffffffffffffffffffffff82169050919050565b6000612b3c82612b11565b9050919050565b612b4c81612b31565b82525050565b6000602082019050612b676000830184612b43565b92915050565b612b7681612b31565b8114612b8157600080fd5b50565b600081359050612b9381612b6d565b92915050565b60008060408385031215612bb057612baf61292e565b5b6000612bbe85828601612b84565b9250506020612bcf85828601612acf565b9150509250929050565b600080fd5b600080fd5b7f4e487b7100000000000000000000000000000000000000000000000000000000600052604160045260246000fd5b612c1b82612a42565b810181811067ffffffffffffffff82111715612c3a57612c39612be3565b5b80604052505050565b6000612c4d612924565b9050612c598282612c12565b919050565b600067ffffffffffffffff821115612c7957612c78612be3565b5b612c8282612a42565b9050602081019050919050565b82818337600083830152505050565b6000612cb1612cac84612c5e565b612c43565b905082815260208101848484011115612ccd57612ccc612bde565b5b612cd8848285612c8f565b509392505050565b600082601f830112612cf557612cf4612bd9565b5b8135612d05848260208601612c9e565b91505092915050565b6000819050919050565b612d2181612d0e565b8114612d2c57600080fd5b50565b600081359050612d3e81612d18565b92915050565b600060ff82169050919050565b612d5a81612d44565b8114612d6557600080fd5b50565b600081359050612d7781612d51565b92915050565b600080600080600060a08688031215612d9957612d9861292e565b5b6000612da788828901612b84565b955050602086013567ffffffffffffffff811115612dc857612dc7612933565b5b612dd488828901612ce0565b9450506040612de588828901612d2f565b9350506060612df688828901612d2f565b9250506080612e0788828901612d68565b9150509295509295909350565b600081519050919050565b600082825260208201905092915050565b6000612e3b82612e14565b612e458185612e1f565b9350612e55818560208601612a0f565b612e5e81612a42565b840191505092915050565b60006020820190508181036000830152612e838184612e30565b905092915050565b600080600060608486031215612ea457612ea361292e565b5b6000612eb286828701612b84565b9350506020612ec386828701612b84565b9250506040612ed486828701612acf565b9150509250925092565b600060208284031215612ef457612ef361292e565b5b6000612f0284828501612b84565b91505092915050565b612f1481612aae565b82525050565b6000602082019050612f2f6000830184612f0b565b92915050565b612f3e816129bd565b8114612f4957600080fd5b50565b600081359050612f5b81612f35565b92915050565b60008060408385031215612f7857612f7761292e565b5b6000612f8685828601612b84565b9250506020612f9785828601612f4c565b9150509250929050565b60008060008060808587031215612fbb57612fba61292e565b5b6000612fc987828801612b84565b9450506020612fda87828801612b84565b9350506040612feb87828801612acf565b925050606085013567ffffffffffffffff81111561300c5761300b612933565b5b61301887828801612ce0565b91505092959194509250565b6000806040838503121561303b5761303a61292e565b5b600061304985828601612b84565b925050602061305a85828601612b84565b9150509250929050565b7f4e487b7100000000000000000000000000000000000000000000000000000000600052602260045260246000fd5b600060028204905060018216806130ab57607f821691505b602082108114156130bf576130be613064565b5b50919050565b7f4552433732313a20617070726f76656420717565727920666f72206e6f6e657860008201527f697374656e7420746f6b656e0000000000000000000000000000000000000000602082015250565b6000613121602c836129fe565b915061312c826130c5565b604082019050919050565b6000602082019050818103600083015261315081613114565b9050919050565b7f4552433732313a20617070726f76616c20746f2063757272656e74206f776e6560008201527f7200000000000000000000000000000000000000000000000000000000000000602082015250565b60006131b36021836129fe565b91506131be82613157565b604082019050919050565b600060208201905081810360008301526131e2816131a6565b9050919050565b7f4552433732313a20617070726f76652063616c6c6572206973206e6f74206f7760008201527f6e6572206e6f7220617070726f76656420666f7220616c6c0000000000000000602082015250565b60006132456038836129fe565b9150613250826131e9565b604082019050919050565b6000602082019050818103600083015261327481613238565b9050919050565b7f66756e6374696f6e5369676e61747572652063616e206e6f74206265206f662060008201527f657865637574654d6574615472616e73616374696f6e206d6574686f64000000602082015250565b60006132d7603d836129fe565b91506132e28261327b565b604082019050919050565b60006020820190508181036000830152613306816132ca565b9050919050565b7f5369676e657220616e64207369676e617475726520646f206e6f74206d61746360008201527f6800000000000000000000000000000000000000000000000000000000000000602082015250565b60006133696021836129fe565b91506133748261330d565b604082019050919050565b600060208201905081810360008301526133988161335c565b9050919050565b600081905092915050565b60006133b582612e14565b6133bf818561339f565b93506133cf818560208601612a0f565b80840191505092915050565b60008160601b9050919050565b60006133f3826133db565b9050919050565b6000613405826133e8565b9050919050565b61341d61341882612b31565b6133fa565b82525050565b600061342f82856133aa565b915061343b828461340c565b6014820191508190509392505050565b600061345782846133aa565b915081905092915050565b7f46756e6374696f6e2063616c6c206e6f74207375636365737366756c00000000600082015250565b6000613498601c836129fe565b91506134a382613462565b602082019050919050565b600060208201905081810360008301526134c78161348b565b9050919050565b60006134d982612b11565b9050919050565b6134e9816134ce565b82525050565b60006060820190506135046000830186612b43565b61351160208301856134e0565b81810360408301526135238184612e30565b9050949350505050565b7f4552433732313a207472616e736665722063616c6c6572206973206e6f74206f60008201527f776e6572206e6f7220617070726f766564000000000000000000000000000000602082015250565b60006135896031836129fe565b91506135948261352d565b604082019050919050565b600060208201905081810360008301526135b88161357c565b9050919050565b600081905092915050565b60006135d5826129f3565b6135df81856135bf565b93506135ef818560208601612a0f565b80840191505092915050565b600061360782866135ca565b915061361382856135ca565b915061361f82846135ca565b9150819050949350505050565b60008190508160005260206000209050919050565b6000815461364e81613093565b61365881866135bf565b945060018216600081146136735760018114613684576136b7565b60ff198316865281860193506136b7565b61368d8561362c565b60005b838110156136af57815481890152600182019150602081019050613690565b838801955050505b50505092915050565b7f3c2f746578743e3c2f7376673e00000000000000000000000000000000000000600082015250565b60006136f6600d836135bf565b9150613701826136c0565b600d82019050919050565b60006137188287613641565b915061372482866135ca565b915061373082856135ca565b915061373c82846135ca565b9150613747826136e9565b915081905095945050505050565b7f7b226e616d65223a202200000000000000000000000000000000000000000000600082015250565b600061378b600a836135bf565b915061379682613755565b600a82019050919050565b7f222c20226465736372697074696f6e223a20224120686967686c79206163636c60008201527f61696d656420636f6c6c656374696f6e20457465726e616c2057617272696f7260208201527f73222c2022696d616765223a2022646174613a696d6167652f7376672b786d6c60408201527f3b6261736536342c000000000000000000000000000000000000000000000000606082015250565b60006138496068836135bf565b9150613854826137a1565b606882019050919050565b7f227d000000000000000000000000000000000000000000000000000000000000600082015250565b60006138956002836135bf565b91506138a08261385f565b600282019050919050565b60006138b68261377e565b91506138c282856135ca565b91506138cd8261383c565b91506138d982846135ca565b91506138e482613888565b91508190509392505050565b7f646174613a6170706c69636174696f6e2f6a736f6e3b6261736536342c000000600082015250565b6000613926601d836135bf565b9150613931826138f0565b601d82019050919050565b600061394782613919565b915061395382846135ca565b915081905092915050565b7f656c656d656e7400000000000000000000000000000000000000000000000000600082015250565b60006139946007836135bf565b915061399f8261395e565b600782019050919050565b60006139b582613987565b91506139c182846135ca565b915081905092915050565b7f4e487b7100000000000000000000000000000000000000000000000000000000600052601260045260246000fd5b6000613a0682612aae565b9150613a1183612aae565b925082613a2157613a206139cc565b5b828206905092915050565b7f4e487b7100000000000000000000000000000000000000000000000000000000600052603260045260246000fd5b7f4552433732313a206f776e657220717565727920666f72206e6f6e657869737460008201527f656e7420746f6b656e0000000000000000000000000000000000000000000000602082015250565b6000613ab76029836129fe565b9150613ac282613a5b565b604082019050919050565b60006020820190508181036000830152613ae681613aaa565b9050919050565b7f4552433732313a2062616c616e636520717565727920666f7220746865207a6560008201527f726f206164647265737300000000000000000000000000000000000000000000602082015250565b6000613b49602a836129fe565b9150613b5482613aed565b604082019050919050565b60006020820190508181036000830152613b7881613b3c565b9050919050565b7f776561706f6e0000000000000000000000000000000000000000000000000000600082015250565b6000613bb56006836135bf565b9150613bc082613b7f565b600682019050919050565b6000613bd682613ba8565b9150613be282846135ca565b915081905092915050565b7f45524337323155524953746f726167653a2055524920717565727920666f722060008201527f6e6f6e6578697374656e7420746f6b656e000000000000000000000000000000602082015250565b6000613c496031836129fe565b9150613c5482613bed565b604082019050919050565b60006020820190508181036000830152613c7881613c3c565b9050919050565b6000613c8b82856135ca565b9150613c9782846135ca565b91508190509392505050565b7f72616e6b00000000000000000000000000000000000000000000000000000000600082015250565b6000613cd96004836135bf565b9150613ce482613ca3565b600482019050919050565b6000613cfa82613ccc565b9150613d0682846135ca565b915081905092915050565b613d1a81612d0e565b82525050565b613d2981612d44565b82525050565b6000608082019050613d446000830187613d11565b613d516020830186613d20565b613d5e6040830185613d11565b613d6b6060830184613d11565b95945050505050565b7f496e76616c6964207369676e6174757265000000000000000000000000000000600082015250565b6000613daa6011836129fe565b9150613db582613d74565b602082019050919050565b60006020820190508181036000830152613dd981613d9d565b9050919050565b7f4e487b7100000000000000000000000000000000000000000000000000000000600052601160045260246000fd5b6000613e1a82612aae565b9150613e2583612aae565b9250827fffffffffffffffffffffffffffffffffffffffffffffffffffffffffffffffff03821115613e5a57613e59613de0565b5b828201905092915050565b7f4552433732313a206f70657261746f7220717565727920666f72206e6f6e657860008201527f697374656e7420746f6b656e0000000000000000000000000000000000000000602082015250565b6000613ec1602c836129fe565b9150613ecc82613e65565b604082019050919050565b60006020820190508181036000830152613ef081613eb4565b9050919050565b7f4552433732313a207472616e73666572206f6620746f6b656e2074686174206960008201527f73206e6f74206f776e0000000000000000000000000000000000000000000000602082015250565b6000613f536029836129fe565b9150613f5e82613ef7565b604082019050919050565b60006020820190508181036000830152613f8281613f46565b9050919050565b7f4552433732313a207472616e7366657220746f20746865207a65726f2061646460008201527f7265737300000000000000000000000000000000000000000000000000000000602082015250565b6000613fe56024836129fe565b9150613ff082613f89565b604082019050919050565b6000602082019050818103600083015261401481613fd8565b9050919050565b600061402682612aae565b915061403183612aae565b92508282101561404457614043613de0565b5b828203905092915050565b600061405a82612aae565b915061406583612aae565b925082614075576140746139cc565b5b828204905092915050565b600061408b82612aae565b915061409683612aae565b9250817fffffffffffffffffffffffffffffffffffffffffffffffffffffffffffffffff04831182151516156140cf576140ce613de0565b5b828202905092915050565b7f45524337323155524953746f726167653a2055524920736574206f66206e6f6e60008201527f6578697374656e7420746f6b656e000000000000000000000000000000000000602082015250565b6000614136602e836129fe565b9150614141826140da565b604082019050919050565b6000602082019050818103600083015261416581614129565b9050919050565b600061417782612aae565b91507fffffffffffffffffffffffffffffffffffffffffffffffffffffffffffffffff8214156141aa576141a9613de0565b5b600182019050919050565b60006141c182846135ca565b915081905092915050565b7f4552433732313a20617070726f766520746f2063616c6c657200000000000000600082015250565b60006142026019836129fe565b915061420d826141cc565b602082019050919050565b60006020820190508181036000830152614231816141f5565b9050919050565b7f4552433732313a207472616e7366657220746f206e6f6e20455243373231526560008201527f63656976657220696d706c656d656e7465720000000000000000000000000000602082015250565b60006142946032836129fe565b915061429f82614238565b604082019050919050565b600060208201905081810360008301526142c381614287565b9050919050565b7f4552433732314d657461646174613a2055524920717565727920666f72206e6f60008201527f6e6578697374656e7420746f6b656e0000000000000000000000000000000000602082015250565b6000614326602f836129fe565b9150614331826142ca565b604082019050919050565b6000602082019050818103600083015261435581614319565b9050919050565b60006080820190506143716000830187613d11565b61437e6020830186612f0b565b61438b6040830185612b43565b6143986060830184613d11565b95945050505050565b7f1901000000000000000000000000000000000000000000000000000000000000600082015250565b60006143d76002836135bf565b91506143e2826143a1565b600282019050919050565b6000819050919050565b61440861440382612d0e565b6143ed565b82525050565b6000614419826143ca565b915061442582856143f7565b60208201915061443582846143f7565b6020820191508190509392505050565b600060808201905061445a6000830187612b43565b6144676020830186612b43565b6144746040830185612f0b565b81810360608301526144868184612e30565b905095945050505050565b6000815190506144a081612964565b92915050565b6000602082840312156144bc576144bb61292e565b5b60006144ca84828501614491565b91505092915050565b7f4552433732313a206d696e7420746f20746865207a65726f2061646472657373600082015250565b60006145096020836129fe565b9150614514826144d3565b602082019050919050565b60006020820190508181036000830152614538816144fc565b9050919050565b7f4552433732313a20746f6b656e20616c7265616479206d696e74656400000000600082015250565b6000614575601c836129fe565b91506145808261453f565b602082019050919050565b600060208201905081810360008301526145a481614568565b905091905056fe4d6574615472616e73616374696f6e2875696e74323536206e6f6e63652c616464726573732066726f6d2c62797465732066756e6374696f6e5369676e6174757265294142434445464748494a4b4c4d4e4f505152535455565758595a6162636465666768696a6b6c6d6e6f707172737475767778797a303132333435363738392b2fa2646970667358221220b4af964ab6404c016eb38312652cf85168295a4f4f09abe103968c9dfcb5388264736f6c634300080a0033454950373132446f6d61696e28737472696e67206e616d652c737472696e672076657273696f6e2c6164647265737320766572696679696e67436f6e74726163742c627974657333322073616c74293c73766720786d6c6e733d27687474703a2f2f7777772e77332e6f72672f323030302f73766727207072657365727665417370656374526174696f3d27784d696e594d696e206d656574272076696577426f783d273020302033353020333530273e3c7374796c653e2e62617365207b2066696c6c3a2077686974653b20666f6e742d66616d696c793a2073657269663b20666f6e742d73697a653a20323470783b207d3c2f7374796c653e3c726563742077696474683d273130302527206865696768743d2731303025272066696c6c3d27626c61636b27202f3e3c7465787420783d273530252720793d273530252720636c6173733d27626173652720646f6d696e616e742d626173656c696e653d276d6964646c652720746578742d616e63686f723d276d6964646c65273e",
  "linkReferences": {},
  "deployedLinkReferences": {}
}