{
  "_format": "hh-sol-artifact-1",
  "contractName": "EternalNFT",
  "sourceName": "contracts/EternalNFT.sol",
  "abi": [
    {
      "inputs": [
        {
          "internalType": "address",
          "name": "_trustedForwarder",
          "type": "address"
        }
      ],
      "stateMutability": "nonpayable",
      "type": "constructor"
    },
    {
      "anonymous": false,
      "inputs": [
        {
          "indexed": true,
          "internalType": "address",
          "name": "owner",
          "type": "address"
        },
        {
          "indexed": true,
          "internalType": "address",
          "name": "approved",
          "type": "address"
        },
        {
          "indexed": true,
          "internalType": "uint256",
          "name": "tokenId",
          "type": "uint256"
        }
      ],
      "name": "Approval",
      "type": "event"
    },
    {
      "anonymous": false,
      "inputs": [
        {
          "indexed": true,
          "internalType": "address",
          "name": "owner",
          "type": "address"
        },
        {
          "indexed": true,
          "internalType": "address",
          "name": "operator",
          "type": "address"
        },
        {
          "indexed": false,
          "internalType": "bool",
          "name": "approved",
          "type": "bool"
        }
      ],
      "name": "ApprovalForAll",
      "type": "event"
    },
    {
      "anonymous": false,
      "inputs": [
        {
          "indexed": true,
          "internalType": "address",
          "name": "from",
          "type": "address"
        },
        {
          "indexed": true,
          "internalType": "address",
          "name": "to",
          "type": "address"
        },
        {
          "indexed": true,
          "internalType": "uint256",
          "name": "tokenId",
          "type": "uint256"
        }
      ],
      "name": "Transfer",
      "type": "event"
    },
    {
      "inputs": [
        {
          "internalType": "address",
          "name": "to",
          "type": "address"
        },
        {
          "internalType": "uint256",
          "name": "tokenId",
          "type": "uint256"
        }
      ],
      "name": "approve",
      "outputs": [],
      "stateMutability": "nonpayable",
      "type": "function"
    },
    {
      "inputs": [
        {
          "internalType": "address",
          "name": "owner",
          "type": "address"
        }
      ],
      "name": "balanceOf",
      "outputs": [
        {
          "internalType": "uint256",
          "name": "",
          "type": "uint256"
        }
      ],
      "stateMutability": "view",
      "type": "function"
    },
    {
      "inputs": [],
      "name": "collectionName",
      "outputs": [
        {
          "internalType": "string",
          "name": "",
          "type": "string"
        }
      ],
      "stateMutability": "view",
      "type": "function"
    },
    {
      "inputs": [],
      "name": "collectionSymbol",
      "outputs": [
        {
          "internalType": "string",
          "name": "",
          "type": "string"
        }
      ],
      "stateMutability": "view",
      "type": "function"
    },
    {
      "inputs": [],
      "name": "createEternalNFT",
      "outputs": [
        {
          "internalType": "uint256",
          "name": "",
          "type": "uint256"
        }
      ],
      "stateMutability": "nonpayable",
      "type": "function"
    },
    {
      "inputs": [
        {
          "internalType": "uint256",
          "name": "tokenId",
          "type": "uint256"
        }
      ],
      "name": "getApproved",
      "outputs": [
        {
          "internalType": "address",
          "name": "",
          "type": "address"
        }
      ],
      "stateMutability": "view",
      "type": "function"
    },
    {
      "inputs": [
        {
          "internalType": "address",
          "name": "owner",
          "type": "address"
        },
        {
          "internalType": "address",
          "name": "operator",
          "type": "address"
        }
      ],
      "name": "isApprovedForAll",
      "outputs": [
        {
          "internalType": "bool",
          "name": "",
          "type": "bool"
        }
      ],
      "stateMutability": "view",
      "type": "function"
    },
    {
      "inputs": [
        {
          "internalType": "address",
          "name": "forwarder",
          "type": "address"
        }
      ],
      "name": "isTrustedForwarder",
      "outputs": [
        {
          "internalType": "bool",
          "name": "",
          "type": "bool"
        }
      ],
      "stateMutability": "view",
      "type": "function"
    },
    {
      "inputs": [],
      "name": "name",
      "outputs": [
        {
          "internalType": "string",
          "name": "",
          "type": "string"
        }
      ],
      "stateMutability": "view",
      "type": "function"
    },
    {
      "inputs": [
        {
          "internalType": "uint256",
          "name": "tokenId",
          "type": "uint256"
        }
      ],
      "name": "ownerOf",
      "outputs": [
        {
          "internalType": "address",
          "name": "",
          "type": "address"
        }
      ],
      "stateMutability": "view",
      "type": "function"
    },
    {
      "inputs": [
        {
          "internalType": "uint256",
          "name": "tokenId",
          "type": "uint256"
        }
      ],
      "name": "pickFirstWord",
      "outputs": [
        {
          "internalType": "string",
          "name": "",
          "type": "string"
        }
      ],
      "stateMutability": "view",
      "type": "function"
    },
    {
      "inputs": [
        {
          "internalType": "uint256",
          "name": "tokenId",
          "type": "uint256"
        }
      ],
      "name": "pickSecondWord",
      "outputs": [
        {
          "internalType": "string",
          "name": "",
          "type": "string"
        }
      ],
      "stateMutability": "view",
      "type": "function"
    },
    {
      "inputs": [
        {
          "internalType": "uint256",
          "name": "tokenId",
          "type": "uint256"
        }
      ],
      "name": "pickThirdWord",
      "outputs": [
        {
          "internalType": "string",
          "name": "",
          "type": "string"
        }
      ],
      "stateMutability": "view",
      "type": "function"
    },
    {
      "inputs": [
        {
          "internalType": "address",
          "name": "from",
          "type": "address"
        },
        {
          "internalType": "address",
          "name": "to",
          "type": "address"
        },
        {
          "internalType": "uint256",
          "name": "tokenId",
          "type": "uint256"
        }
      ],
      "name": "safeTransferFrom",
      "outputs": [],
      "stateMutability": "nonpayable",
      "type": "function"
    },
    {
      "inputs": [
        {
          "internalType": "address",
          "name": "from",
          "type": "address"
        },
        {
          "internalType": "address",
          "name": "to",
          "type": "address"
        },
        {
          "internalType": "uint256",
          "name": "tokenId",
          "type": "uint256"
        },
        {
          "internalType": "bytes",
          "name": "_data",
          "type": "bytes"
        }
      ],
      "name": "safeTransferFrom",
      "outputs": [],
      "stateMutability": "nonpayable",
      "type": "function"
    },
    {
      "inputs": [
        {
          "internalType": "address",
          "name": "operator",
          "type": "address"
        },
        {
          "internalType": "bool",
          "name": "approved",
          "type": "bool"
        }
      ],
      "name": "setApprovalForAll",
      "outputs": [],
      "stateMutability": "nonpayable",
      "type": "function"
    },
    {
      "inputs": [
        {
          "internalType": "bytes4",
          "name": "interfaceId",
          "type": "bytes4"
        }
      ],
      "name": "supportsInterface",
      "outputs": [
        {
          "internalType": "bool",
          "name": "",
          "type": "bool"
        }
      ],
      "stateMutability": "view",
      "type": "function"
    },
    {
      "inputs": [],
      "name": "symbol",
      "outputs": [
        {
          "internalType": "string",
          "name": "",
          "type": "string"
        }
      ],
      "stateMutability": "view",
      "type": "function"
    },
    {
      "inputs": [
        {
          "internalType": "uint256",
          "name": "tokenId",
          "type": "uint256"
        }
      ],
      "name": "tokenURI",
      "outputs": [
        {
          "internalType": "string",
          "name": "",
          "type": "string"
        }
      ],
      "stateMutability": "view",
      "type": "function"
    },
    {
      "inputs": [
        {
          "internalType": "address",
          "name": "from",
          "type": "address"
        },
        {
          "internalType": "address",
          "name": "to",
          "type": "address"
        },
        {
          "internalType": "uint256",
          "name": "tokenId",
          "type": "uint256"
        }
      ],
      "name": "transferFrom",
      "outputs": [],
      "stateMutability": "nonpayable",
      "type": "function"
    }
  ],
  "bytecode": "0x608060405260405180610160016040528061012f8152602001620042fa61012f9139600b90805190602001906200003892919062000680565b506040518060e001604052806040518060400160405280600481526020017f466972650000000000000000000000000000000000000000000000000000000081525081526020016040518060400160405280600481526020017f57696e640000000000000000000000000000000000000000000000000000000081525081526020016040518060400160405280600481526020017f576176650000000000000000000000000000000000000000000000000000000081525081526020016040518060400160405280600581526020017f456172746800000000000000000000000000000000000000000000000000000081525081526020016040518060400160405280600781526020017f5468756e6465720000000000000000000000000000000000000000000000000081525081526020016040518060400160405280600581526020017f537061636500000000000000000000000000000000000000000000000000000081525081526020016040518060400160405280600481526020017f54696d6500000000000000000000000000000000000000000000000000000000815250815250600c906007620001f192919062000711565b506040518060e001604052806040518060400160405280600581526020017f53776f726400000000000000000000000000000000000000000000000000000081525081526020016040518060400160405280600581526020017f537065617200000000000000000000000000000000000000000000000000000081525081526020016040518060400160405280600681526020017f536869656c64000000000000000000000000000000000000000000000000000081525081526020016040518060400160405280600681526020017f48616d6d6572000000000000000000000000000000000000000000000000000081525081526020016040518060400160405280600581526020017f536162657200000000000000000000000000000000000000000000000000000081525081526020016040518060400160405280600381526020017f417865000000000000000000000000000000000000000000000000000000000081525081526020016040518060400160405280600381526020017f426f770000000000000000000000000000000000000000000000000000000000815250815250600d906007620003aa92919062000711565b506040518060e001604052806040518060400160405280600481526020017f4c6f72640000000000000000000000000000000000000000000000000000000081525081526020016040518060400160405280600481526020017f4b696e670000000000000000000000000000000000000000000000000000000081525081526020016040518060400160405280600781526020017f456d7065726f720000000000000000000000000000000000000000000000000081525081526020016040518060400160405280600981526020017f56656e657261626c65000000000000000000000000000000000000000000000081525081526020016040518060400160405280600881526020017f416e636573746f7200000000000000000000000000000000000000000000000081525081526020016040518060400160405280600581526020017f5361696e7400000000000000000000000000000000000000000000000000000081525081526020016040518060400160405280600381526020017f476f640000000000000000000000000000000000000000000000000000000000815250815250600e9060076200056392919062000711565b503480156200057157600080fd5b50604051620044293803806200442983398181016040528101906200059791906200086f565b6040518060400160405280600a81526020017f457465726e616c4e4654000000000000000000000000000000000000000000008152506040518060400160405280600481526020017f454e46540000000000000000000000000000000000000000000000000000000081525082806000806101000a81548173ffffffffffffffffffffffffffffffffffffffff021916908373ffffffffffffffffffffffffffffffffffffffff1602179055505081600190805190602001906200065d92919062000680565b5080600290805190602001906200067692919062000680565b5050505062000906565b8280546200068e90620008d0565b90600052602060002090601f016020900481019282620006b25760008555620006fe565b82601f10620006cd57805160ff1916838001178555620006fe565b82800160010185558215620006fe579182015b82811115620006fd578251825591602001919060010190620006e0565b5b5090506200070d919062000778565b5090565b82805482825590600052602060002090810192821562000765579160200282015b82811115620007645782518290805190602001906200075392919062000680565b509160200191906001019062000732565b5b50905062000774919062000797565b5090565b5b808211156200079357600081600090555060010162000779565b5090565b5b80821115620007bb5760008181620007b19190620007bf565b5060010162000798565b5090565b508054620007cd90620008d0565b6000825580601f10620007e1575062000802565b601f01602090049060005260206000209081019062000801919062000778565b5b50565b600080fd5b600073ffffffffffffffffffffffffffffffffffffffff82169050919050565b600062000837826200080a565b9050919050565b62000849816200082a565b81146200085557600080fd5b50565b60008151905062000869816200083e565b92915050565b60006020828403121562000888576200088762000805565b5b6000620008988482850162000858565b91505092915050565b7f4e487b7100000000000000000000000000000000000000000000000000000000600052602260045260246000fd5b60006002820490506001821680620008e957607f821691505b602082108114156200090057620008ff620008a1565b5b50919050565b6139e480620009166000396000f3fe608060405234801561001057600080fd5b506004361061012c5760003560e01c80636352211e116100ad578063c630338611610071578063c630338614610355578063c87b56dd14610385578063e2d2c308146103b5578063e5326ab1146103e5578063e985e9c5146104035761012c565b80636352211e1461029f57806370a08231146102cf57806395d89b41146102ff578063a22cb4651461031d578063b88d4fde146103395761012c565b80632f39352a116100f45780632f39352a146101e75780633330880e146102055780633bad0d361461022357806342842e0e14610253578063572b6c051461026f5761012c565b806301ffc9a71461013157806306fdde0314610161578063081812fc1461017f578063095ea7b3146101af57806323b872dd146101cb575b600080fd5b61014b600480360381019061014691906122e5565b610433565b604051610158919061232d565b60405180910390f35b610169610515565b60405161017691906123e1565b60405180910390f35b61019960048036038101906101949190612439565b6105a7565b6040516101a691906124a7565b60405180910390f35b6101c960048036038101906101c491906124ee565b61062c565b005b6101e560048036038101906101e0919061252e565b610744565b005b6101ef6107a4565b6040516101fc91906123e1565b60405180910390f35b61020d610832565b60405161021a9190612590565b60405180910390f35b61023d60048036038101906102389190612439565b610987565b60405161024a91906123e1565b60405180910390f35b61026d6004803603810190610268919061252e565b610a7f565b005b610289600480360381019061028491906125ab565b610a9f565b604051610296919061232d565b60405180910390f35b6102b960048036038101906102b49190612439565b610af8565b6040516102c691906124a7565b60405180910390f35b6102e960048036038101906102e491906125ab565b610baa565b6040516102f69190612590565b60405180910390f35b610307610c62565b60405161031491906123e1565b60405180910390f35b61033760048036038101906103329190612604565b610cf4565b005b610353600480360381019061034e9190612779565b610d0a565b005b61036f600480360381019061036a9190612439565b610d6c565b60405161037c91906123e1565b60405180910390f35b61039f600480360381019061039a9190612439565b610e64565b6040516103ac91906123e1565b60405180910390f35b6103cf60048036038101906103ca9190612439565b610fb6565b6040516103dc91906123e1565b60405180910390f35b6103ed6110ae565b6040516103fa91906123e1565b60405180910390f35b61041d600480360381019061041891906127fc565b61113c565b60405161042a919061232d565b60405180910390f35b60007f80ac58cd000000000000000000000000000000000000000000000000000000007bffffffffffffffffffffffffffffffffffffffffffffffffffffffff1916827bffffffffffffffffffffffffffffffffffffffffffffffffffffffff191614806104fe57507f5b5e139f000000000000000000000000000000000000000000000000000000007bffffffffffffffffffffffffffffffffffffffffffffffffffffffff1916827bffffffffffffffffffffffffffffffffffffffffffffffffffffffff1916145b8061050e575061050d826111d0565b5b9050919050565b6060600180546105249061286b565b80601f01602080910402602001604051908101604052809291908181526020018280546105509061286b565b801561059d5780601f106105725761010080835404028352916020019161059d565b820191906000526020600020905b81548152906001019060200180831161058057829003601f168201915b5050505050905090565b60006105b28261123a565b6105f1576040517f08c379a00000000000000000000000000000000000000000000000000000000081526004016105e89061290f565b60405180910390fd5b6005600083815260200190815260200160002060009054906101000a900473ffffffffffffffffffffffffffffffffffffffff169050919050565b600061063782610af8565b90508073ffffffffffffffffffffffffffffffffffffffff168373ffffffffffffffffffffffffffffffffffffffff1614156106a8576040517f08c379a000000000000000000000000000000000000000000000000000000000815260040161069f906129a1565b60405180910390fd5b8073ffffffffffffffffffffffffffffffffffffffff166106c76112a6565b73ffffffffffffffffffffffffffffffffffffffff1614806106f657506106f5816106f06112a6565b61113c565b5b610735576040517f08c379a000000000000000000000000000000000000000000000000000000000815260040161072c90612a33565b60405180910390fd5b61073f83836112b5565b505050565b61075561074f6112a6565b8261136e565b610794576040517f08c379a000000000000000000000000000000000000000000000000000000000815260040161078b90612ac5565b60405180910390fd5b61079f83838361144c565b505050565b600a80546107b19061286b565b80601f01602080910402602001604051908101604052809291908181526020018280546107dd9061286b565b801561082a5780601f106107ff5761010080835404028352916020019161082a565b820191906000526020600020905b81548152906001019060200180831161080d57829003601f168201915b505050505081565b60006108726040518060400160405280601381526020017f4372656174696e6720457465726e616c4e4654000000000000000000000000008152506116a8565b600061087e6008611741565b9050600061088b82610987565b9050600061089883610d6c565b905060006108a584610fb6565b905060008383836040516020016108be93929190612b21565b60405160208183030381529060405290506000600b8585856040516020016108e99493929190612c32565b6040516020818303038152906040529050600061092e836109098461174f565b60405160200161091a929190612dd1565b60405160208183030381529060405261174f565b90506000816040516020016109439190612e62565b604051602081830303815290604052905061096561095f6112a6565b896118e7565b61096f8882611905565b6109796008611979565b879850505050505050505090565b606060006109bb6109978461198f565b6040516020016109a79190612ed0565b604051602081830303815290604052611af0565b9050600c80549050816109ce9190612f21565b9050600c81815481106109e4576109e3612f52565b5b9060005260206000200180546109f99061286b565b80601f0160208091040260200160405190810160405280929190818152602001828054610a259061286b565b8015610a725780601f10610a4757610100808354040283529160200191610a72565b820191906000526020600020905b815481529060010190602001808311610a5557829003601f168201915b5050505050915050919050565b610a9a83838360405180602001604052806000815250610d0a565b505050565b60008060009054906101000a900473ffffffffffffffffffffffffffffffffffffffff1673ffffffffffffffffffffffffffffffffffffffff168273ffffffffffffffffffffffffffffffffffffffff16149050919050565b6000806003600084815260200190815260200160002060009054906101000a900473ffffffffffffffffffffffffffffffffffffffff169050600073ffffffffffffffffffffffffffffffffffffffff168173ffffffffffffffffffffffffffffffffffffffff161415610ba1576040517f08c379a0000000000000000000000000000000000000000000000000000000008152600401610b9890612ff3565b60405180910390fd5b80915050919050565b60008073ffffffffffffffffffffffffffffffffffffffff168273ffffffffffffffffffffffffffffffffffffffff161415610c1b576040517f08c379a0000000000000000000000000000000000000000000000000000000008152600401610c1290613085565b60405180910390fd5b600460008373ffffffffffffffffffffffffffffffffffffffff1673ffffffffffffffffffffffffffffffffffffffff168152602001908152602001600020549050919050565b606060028054610c719061286b565b80601f0160208091040260200160405190810160405280929190818152602001828054610c9d9061286b565b8015610cea5780601f10610cbf57610100808354040283529160200191610cea565b820191906000526020600020905b815481529060010190602001808311610ccd57829003601f168201915b5050505050905090565b610d06610cff6112a6565b8383611b23565b5050565b610d1b610d156112a6565b8361136e565b610d5a576040517f08c379a0000000000000000000000000000000000000000000000000000000008152600401610d5190612ac5565b60405180910390fd5b610d6684848484611c90565b50505050565b60606000610da0610d7c8461198f565b604051602001610d8c91906130f1565b604051602081830303815290604052611af0565b9050600d8054905081610db39190612f21565b9050600d8181548110610dc957610dc8612f52565b5b906000526020600020018054610dde9061286b565b80601f0160208091040260200160405190810160405280929190818152602001828054610e0a9061286b565b8015610e575780601f10610e2c57610100808354040283529160200191610e57565b820191906000526020600020905b815481529060010190602001808311610e3a57829003601f168201915b5050505050915050919050565b6060610e6f8261123a565b610eae576040517f08c379a0000000000000000000000000000000000000000000000000000000008152600401610ea590613185565b60405180910390fd5b6000600760008481526020019081526020016000208054610ece9061286b565b80601f0160208091040260200160405190810160405280929190818152602001828054610efa9061286b565b8015610f475780601f10610f1c57610100808354040283529160200191610f47565b820191906000526020600020905b815481529060010190602001808311610f2a57829003601f168201915b505050505090506000610f58611cec565b9050600081511415610f6e578192505050610fb1565b600082511115610fa3578082604051602001610f8b9291906131a5565b60405160208183030381529060405292505050610fb1565b610fac84611d03565b925050505b919050565b60606000610fea610fc68461198f565b604051602001610fd69190613215565b604051602081830303815290604052611af0565b9050600e8054905081610ffd9190612f21565b9050600e818154811061101357611012612f52565b5b9060005260206000200180546110289061286b565b80601f01602080910402602001604051908101604052809291908181526020018280546110549061286b565b80156110a15780601f10611076576101008083540402835291602001916110a1565b820191906000526020600020905b81548152906001019060200180831161108457829003601f168201915b5050505050915050919050565b600980546110bb9061286b565b80601f01602080910402602001604051908101604052809291908181526020018280546110e79061286b565b80156111345780601f1061110957610100808354040283529160200191611134565b820191906000526020600020905b81548152906001019060200180831161111757829003601f168201915b505050505081565b6000600660008473ffffffffffffffffffffffffffffffffffffffff1673ffffffffffffffffffffffffffffffffffffffff16815260200190815260200160002060008373ffffffffffffffffffffffffffffffffffffffff1673ffffffffffffffffffffffffffffffffffffffff16815260200190815260200160002060009054906101000a900460ff16905092915050565b60007f01ffc9a7000000000000000000000000000000000000000000000000000000007bffffffffffffffffffffffffffffffffffffffffffffffffffffffff1916827bffffffffffffffffffffffffffffffffffffffffffffffffffffffff1916149050919050565b60008073ffffffffffffffffffffffffffffffffffffffff166003600084815260200190815260200160002060009054906101000a900473ffffffffffffffffffffffffffffffffffffffff1673ffffffffffffffffffffffffffffffffffffffff1614159050919050565b60006112b0611daa565b905090565b816005600083815260200190815260200160002060006101000a81548173ffffffffffffffffffffffffffffffffffffffff021916908373ffffffffffffffffffffffffffffffffffffffff160217905550808273ffffffffffffffffffffffffffffffffffffffff1661132883610af8565b73ffffffffffffffffffffffffffffffffffffffff167f8c5be1e5ebec7d5bd14f71427d1e84f3dd0314c0f7b2291e5b200ac8c7c3b92560405160405180910390a45050565b60006113798261123a565b6113b8576040517f08c379a00000000000000000000000000000000000000000000000000000000081526004016113af906132a9565b60405180910390fd5b60006113c383610af8565b90508073ffffffffffffffffffffffffffffffffffffffff168473ffffffffffffffffffffffffffffffffffffffff16148061143257508373ffffffffffffffffffffffffffffffffffffffff1661141a846105a7565b73ffffffffffffffffffffffffffffffffffffffff16145b806114435750611442818561113c565b5b91505092915050565b8273ffffffffffffffffffffffffffffffffffffffff1661146c82610af8565b73ffffffffffffffffffffffffffffffffffffffff16146114c2576040517f08c379a00000000000000000000000000000000000000000000000000000000081526004016114b99061333b565b60405180910390fd5b600073ffffffffffffffffffffffffffffffffffffffff168273ffffffffffffffffffffffffffffffffffffffff161415611532576040517f08c379a0000000000000000000000000000000000000000000000000000000008152600401611529906133cd565b60405180910390fd5b61153d838383611ddc565b6115486000826112b5565b6001600460008573ffffffffffffffffffffffffffffffffffffffff1673ffffffffffffffffffffffffffffffffffffffff1681526020019081526020016000206000828254611598919061341c565b925050819055506001600460008473ffffffffffffffffffffffffffffffffffffffff1673ffffffffffffffffffffffffffffffffffffffff16815260200190815260200160002060008282546115ef9190613450565b92505081905550816003600083815260200190815260200160002060006101000a81548173ffffffffffffffffffffffffffffffffffffffff021916908373ffffffffffffffffffffffffffffffffffffffff160217905550808273ffffffffffffffffffffffffffffffffffffffff168473ffffffffffffffffffffffffffffffffffffffff167fddf252ad1be2c89b69c2b068fc378daa952ba7f163c4a11628f55a4df523b3ef60405160405180910390a4505050565b61173e816040516024016116bc91906123e1565b6040516020818303038152906040527f41304fac000000000000000000000000000000000000000000000000000000007bffffffffffffffffffffffffffffffffffffffffffffffffffffffff19166020820180517bffffffffffffffffffffffffffffffffffffffffffffffffffffffff8381831617835250505050611de1565b50565b600081600001549050919050565b6060600082519050600081141561177857604051806020016040528060008152509150506118e2565b600060036002836117899190613450565b61179391906134a6565b600461179f91906134d7565b905060006020826117b09190613450565b67ffffffffffffffff8111156117c9576117c861264e565b5b6040519080825280601f01601f1916602001820160405280156117fb5781602001600182028036833780820191505090505b509050600060405180606001604052806040815260200161396f604091399050600181016020830160005b8681101561189f5760038101905062ffffff818a015116603f8160121c168401518060081b905060ff603f83600c1c1686015116810190508060081b905060ff603f8360061c1686015116810190508060081b905060ff603f831686015116810190508060e01b90508084526004840193505050611826565b5060038606600181146118b957600281146118c9576118d4565b613d3d60f01b60028303526118d4565b603d60f81b60018303525b508484525050819450505050505b919050565b611901828260405180602001604052806000815250611e0a565b5050565b61190e8261123a565b61194d576040517f08c379a0000000000000000000000000000000000000000000000000000000008152600401611944906135a3565b60405180910390fd5b806007600084815260200190815260200160002090805190602001906119749291906121d6565b505050565b6001816000016000828254019250508190555050565b606060008214156119d7576040518060400160405280600181526020017f30000000000000000000000000000000000000000000000000000000000000008152509050611aeb565b600082905060005b60008214611a095780806119f2906135c3565b915050600a82611a0291906134a6565b91506119df565b60008167ffffffffffffffff811115611a2557611a2461264e565b5b6040519080825280601f01601f191660200182016040528015611a575781602001600182028036833780820191505090505b5090505b60008514611ae457600182611a70919061341c565b9150600a85611a7f9190612f21565b6030611a8b9190613450565b60f81b818381518110611aa157611aa0612f52565b5b60200101907effffffffffffffffffffffffffffffffffffffffffffffffffffffffffffff1916908160001a905350600a85611add91906134a6565b9450611a5b565b8093505050505b919050565b600081604051602001611b03919061360c565b6040516020818303038152906040528051906020012060001c9050919050565b8173ffffffffffffffffffffffffffffffffffffffff168373ffffffffffffffffffffffffffffffffffffffff161415611b92576040517f08c379a0000000000000000000000000000000000000000000000000000000008152600401611b899061366f565b60405180910390fd5b80600660008573ffffffffffffffffffffffffffffffffffffffff1673ffffffffffffffffffffffffffffffffffffffff16815260200190815260200160002060008473ffffffffffffffffffffffffffffffffffffffff1673ffffffffffffffffffffffffffffffffffffffff16815260200190815260200160002060006101000a81548160ff0219169083151502179055508173ffffffffffffffffffffffffffffffffffffffff168373ffffffffffffffffffffffffffffffffffffffff167f17307eab39ab6107e8899845ad3d59bd9653f200f220920489ca2b5937696c3183604051611c83919061232d565b60405180910390a3505050565b611c9b84848461144c565b611ca784848484611e65565b611ce6576040517f08c379a0000000000000000000000000000000000000000000000000000000008152600401611cdd90613701565b60405180910390fd5b50505050565b606060405180602001604052806000815250905090565b6060611d0e8261123a565b611d4d576040517f08c379a0000000000000000000000000000000000000000000000000000000008152600401611d4490613793565b60405180910390fd5b6000611d57611cec565b90506000815111611d775760405180602001604052806000815250611da2565b80611d818461198f565b604051602001611d929291906131a5565b6040516020818303038152906040525b915050919050565b6000611db533610a9f565b15611dc957601436033560601c9050611dd8565b611dd1611fed565b9050611dd9565b5b90565b505050565b60008151905060006a636f6e736f6c652e6c6f679050602083016000808483855afa5050505050565b611e148383611ff5565b611e216000848484611e65565b611e60576040517f08c379a0000000000000000000000000000000000000000000000000000000008152600401611e5790613701565b60405180910390fd5b505050565b6000611e868473ffffffffffffffffffffffffffffffffffffffff166121c3565b15611fe0578373ffffffffffffffffffffffffffffffffffffffff1663150b7a02611eaf6112a6565b8786866040518563ffffffff1660e01b8152600401611ed19493929190613808565b6020604051808303816000875af1925050508015611f0d57506040513d601f19601f82011682018060405250810190611f0a9190613869565b60015b611f90573d8060008114611f3d576040519150601f19603f3d011682016040523d82523d6000602084013e611f42565b606091505b50600081511415611f88576040517f08c379a0000000000000000000000000000000000000000000000000000000008152600401611f7f90613701565b60405180910390fd5b805181602001fd5b63150b7a0260e01b7bffffffffffffffffffffffffffffffffffffffffffffffffffffffff1916817bffffffffffffffffffffffffffffffffffffffffffffffffffffffff191614915050611fe5565b600190505b949350505050565b600033905090565b600073ffffffffffffffffffffffffffffffffffffffff168273ffffffffffffffffffffffffffffffffffffffff161415612065576040517f08c379a000000000000000000000000000000000000000000000000000000000815260040161205c906138e2565b60405180910390fd5b61206e8161123a565b156120ae576040517f08c379a00000000000000000000000000000000000000000000000000000000081526004016120a59061394e565b60405180910390fd5b6120ba60008383611ddc565b6001600460008473ffffffffffffffffffffffffffffffffffffffff1673ffffffffffffffffffffffffffffffffffffffff168152602001908152602001600020600082825461210a9190613450565b92505081905550816003600083815260200190815260200160002060006101000a81548173ffffffffffffffffffffffffffffffffffffffff021916908373ffffffffffffffffffffffffffffffffffffffff160217905550808273ffffffffffffffffffffffffffffffffffffffff16600073ffffffffffffffffffffffffffffffffffffffff167fddf252ad1be2c89b69c2b068fc378daa952ba7f163c4a11628f55a4df523b3ef60405160405180910390a45050565b600080823b905060008111915050919050565b8280546121e29061286b565b90600052602060002090601f016020900481019282612204576000855561224b565b82601f1061221d57805160ff191683800117855561224b565b8280016001018555821561224b579182015b8281111561224a57825182559160200191906001019061222f565b5b509050612258919061225c565b5090565b5b8082111561227557600081600090555060010161225d565b5090565b6000604051905090565b600080fd5b600080fd5b60007fffffffff0000000000000000000000000000000000000000000000000000000082169050919050565b6122c28161228d565b81146122cd57600080fd5b50565b6000813590506122df816122b9565b92915050565b6000602082840312156122fb576122fa612283565b5b6000612309848285016122d0565b91505092915050565b60008115159050919050565b61232781612312565b82525050565b6000602082019050612342600083018461231e565b92915050565b600081519050919050565b600082825260208201905092915050565b60005b83811015612382578082015181840152602081019050612367565b83811115612391576000848401525b50505050565b6000601f19601f8301169050919050565b60006123b382612348565b6123bd8185612353565b93506123cd818560208601612364565b6123d681612397565b840191505092915050565b600060208201905081810360008301526123fb81846123a8565b905092915050565b6000819050919050565b61241681612403565b811461242157600080fd5b50565b6000813590506124338161240d565b92915050565b60006020828403121561244f5761244e612283565b5b600061245d84828501612424565b91505092915050565b600073ffffffffffffffffffffffffffffffffffffffff82169050919050565b600061249182612466565b9050919050565b6124a181612486565b82525050565b60006020820190506124bc6000830184612498565b92915050565b6124cb81612486565b81146124d657600080fd5b50565b6000813590506124e8816124c2565b92915050565b6000806040838503121561250557612504612283565b5b6000612513858286016124d9565b925050602061252485828601612424565b9150509250929050565b60008060006060848603121561254757612546612283565b5b6000612555868287016124d9565b9350506020612566868287016124d9565b925050604061257786828701612424565b9150509250925092565b61258a81612403565b82525050565b60006020820190506125a56000830184612581565b92915050565b6000602082840312156125c1576125c0612283565b5b60006125cf848285016124d9565b91505092915050565b6125e181612312565b81146125ec57600080fd5b50565b6000813590506125fe816125d8565b92915050565b6000806040838503121561261b5761261a612283565b5b6000612629858286016124d9565b925050602061263a858286016125ef565b9150509250929050565b600080fd5b600080fd5b7f4e487b7100000000000000000000000000000000000000000000000000000000600052604160045260246000fd5b61268682612397565b810181811067ffffffffffffffff821117156126a5576126a461264e565b5b80604052505050565b60006126b8612279565b90506126c4828261267d565b919050565b600067ffffffffffffffff8211156126e4576126e361264e565b5b6126ed82612397565b9050602081019050919050565b82818337600083830152505050565b600061271c612717846126c9565b6126ae565b90508281526020810184848401111561273857612737612649565b5b6127438482856126fa565b509392505050565b600082601f8301126127605761275f612644565b5b8135612770848260208601612709565b91505092915050565b6000806000806080858703121561279357612792612283565b5b60006127a1878288016124d9565b94505060206127b2878288016124d9565b93505060406127c387828801612424565b925050606085013567ffffffffffffffff8111156127e4576127e3612288565b5b6127f08782880161274b565b91505092959194509250565b6000806040838503121561281357612812612283565b5b6000612821858286016124d9565b9250506020612832858286016124d9565b9150509250929050565b7f4e487b7100000000000000000000000000000000000000000000000000000000600052602260045260246000fd5b6000600282049050600182168061288357607f821691505b602082108114156128975761289661283c565b5b50919050565b7f4552433732313a20617070726f76656420717565727920666f72206e6f6e657860008201527f697374656e7420746f6b656e0000000000000000000000000000000000000000602082015250565b60006128f9602c83612353565b91506129048261289d565b604082019050919050565b60006020820190508181036000830152612928816128ec565b9050919050565b7f4552433732313a20617070726f76616c20746f2063757272656e74206f776e6560008201527f7200000000000000000000000000000000000000000000000000000000000000602082015250565b600061298b602183612353565b91506129968261292f565b604082019050919050565b600060208201905081810360008301526129ba8161297e565b9050919050565b7f4552433732313a20617070726f76652063616c6c6572206973206e6f74206f7760008201527f6e6572206e6f7220617070726f76656420666f7220616c6c0000000000000000602082015250565b6000612a1d603883612353565b9150612a28826129c1565b604082019050919050565b60006020820190508181036000830152612a4c81612a10565b9050919050565b7f4552433732313a207472616e736665722063616c6c6572206973206e6f74206f60008201527f776e6572206e6f7220617070726f766564000000000000000000000000000000602082015250565b6000612aaf603183612353565b9150612aba82612a53565b604082019050919050565b60006020820190508181036000830152612ade81612aa2565b9050919050565b600081905092915050565b6000612afb82612348565b612b058185612ae5565b9350612b15818560208601612364565b80840191505092915050565b6000612b2d8286612af0565b9150612b398285612af0565b9150612b458284612af0565b9150819050949350505050565b60008190508160005260206000209050919050565b60008154612b748161286b565b612b7e8186612ae5565b94506001821660008114612b995760018114612baa57612bdd565b60ff19831686528186019350612bdd565b612bb385612b52565b60005b83811015612bd557815481890152600182019150602081019050612bb6565b838801955050505b50505092915050565b7f3c2f746578743e3c2f7376673e00000000000000000000000000000000000000600082015250565b6000612c1c600d83612ae5565b9150612c2782612be6565b600d82019050919050565b6000612c3e8287612b67565b9150612c4a8286612af0565b9150612c568285612af0565b9150612c628284612af0565b9150612c6d82612c0f565b915081905095945050505050565b7f7b226e616d65223a202200000000000000000000000000000000000000000000600082015250565b6000612cb1600a83612ae5565b9150612cbc82612c7b565b600a82019050919050565b7f222c20226465736372697074696f6e223a20224120686967686c79206163636c60008201527f61696d656420636f6c6c656374696f6e20457465726e616c2057617272696f7260208201527f73222c2022696d616765223a2022646174613a696d6167652f7376672b786d6c60408201527f3b6261736536342c000000000000000000000000000000000000000000000000606082015250565b6000612d6f606883612ae5565b9150612d7a82612cc7565b606882019050919050565b7f227d000000000000000000000000000000000000000000000000000000000000600082015250565b6000612dbb600283612ae5565b9150612dc682612d85565b600282019050919050565b6000612ddc82612ca4565b9150612de88285612af0565b9150612df382612d62565b9150612dff8284612af0565b9150612e0a82612dae565b91508190509392505050565b7f646174613a6170706c69636174696f6e2f6a736f6e3b6261736536342c000000600082015250565b6000612e4c601d83612ae5565b9150612e5782612e16565b601d82019050919050565b6000612e6d82612e3f565b9150612e798284612af0565b915081905092915050565b7f656c656d656e7400000000000000000000000000000000000000000000000000600082015250565b6000612eba600783612ae5565b9150612ec582612e84565b600782019050919050565b6000612edb82612ead565b9150612ee78284612af0565b915081905092915050565b7f4e487b7100000000000000000000000000000000000000000000000000000000600052601260045260246000fd5b6000612f2c82612403565b9150612f3783612403565b925082612f4757612f46612ef2565b5b828206905092915050565b7f4e487b7100000000000000000000000000000000000000000000000000000000600052603260045260246000fd5b7f4552433732313a206f776e657220717565727920666f72206e6f6e657869737460008201527f656e7420746f6b656e0000000000000000000000000000000000000000000000602082015250565b6000612fdd602983612353565b9150612fe882612f81565b604082019050919050565b6000602082019050818103600083015261300c81612fd0565b9050919050565b7f4552433732313a2062616c616e636520717565727920666f7220746865207a6560008201527f726f206164647265737300000000000000000000000000000000000000000000602082015250565b600061306f602a83612353565b915061307a82613013565b604082019050919050565b6000602082019050818103600083015261309e81613062565b9050919050565b7f776561706f6e0000000000000000000000000000000000000000000000000000600082015250565b60006130db600683612ae5565b91506130e6826130a5565b600682019050919050565b60006130fc826130ce565b91506131088284612af0565b915081905092915050565b7f45524337323155524953746f726167653a2055524920717565727920666f722060008201527f6e6f6e6578697374656e7420746f6b656e000000000000000000000000000000602082015250565b600061316f603183612353565b915061317a82613113565b604082019050919050565b6000602082019050818103600083015261319e81613162565b9050919050565b60006131b18285612af0565b91506131bd8284612af0565b91508190509392505050565b7f72616e6b00000000000000000000000000000000000000000000000000000000600082015250565b60006131ff600483612ae5565b915061320a826131c9565b600482019050919050565b6000613220826131f2565b915061322c8284612af0565b915081905092915050565b7f4552433732313a206f70657261746f7220717565727920666f72206e6f6e657860008201527f697374656e7420746f6b656e0000000000000000000000000000000000000000602082015250565b6000613293602c83612353565b915061329e82613237565b604082019050919050565b600060208201905081810360008301526132c281613286565b9050919050565b7f4552433732313a207472616e73666572206f6620746f6b656e2074686174206960008201527f73206e6f74206f776e0000000000000000000000000000000000000000000000602082015250565b6000613325602983612353565b9150613330826132c9565b604082019050919050565b6000602082019050818103600083015261335481613318565b9050919050565b7f4552433732313a207472616e7366657220746f20746865207a65726f2061646460008201527f7265737300000000000000000000000000000000000000000000000000000000602082015250565b60006133b7602483612353565b91506133c28261335b565b604082019050919050565b600060208201905081810360008301526133e6816133aa565b9050919050565b7f4e487b7100000000000000000000000000000000000000000000000000000000600052601160045260246000fd5b600061342782612403565b915061343283612403565b925082821015613445576134446133ed565b5b828203905092915050565b600061345b82612403565b915061346683612403565b9250827fffffffffffffffffffffffffffffffffffffffffffffffffffffffffffffffff0382111561349b5761349a6133ed565b5b828201905092915050565b60006134b182612403565b91506134bc83612403565b9250826134cc576134cb612ef2565b5b828204905092915050565b60006134e282612403565b91506134ed83612403565b9250817fffffffffffffffffffffffffffffffffffffffffffffffffffffffffffffffff0483118215151615613526576135256133ed565b5b828202905092915050565b7f45524337323155524953746f726167653a2055524920736574206f66206e6f6e60008201527f6578697374656e7420746f6b656e000000000000000000000000000000000000602082015250565b600061358d602e83612353565b915061359882613531565b604082019050919050565b600060208201905081810360008301526135bc81613580565b9050919050565b60006135ce82612403565b91507fffffffffffffffffffffffffffffffffffffffffffffffffffffffffffffffff821415613601576136006133ed565b5b600182019050919050565b60006136188284612af0565b915081905092915050565b7f4552433732313a20617070726f766520746f2063616c6c657200000000000000600082015250565b6000613659601983612353565b915061366482613623565b602082019050919050565b600060208201905081810360008301526136888161364c565b9050919050565b7f4552433732313a207472616e7366657220746f206e6f6e20455243373231526560008201527f63656976657220696d706c656d656e7465720000000000000000000000000000602082015250565b60006136eb603283612353565b91506136f68261368f565b604082019050919050565b6000602082019050818103600083015261371a816136de565b9050919050565b7f4552433732314d657461646174613a2055524920717565727920666f72206e6f60008201527f6e6578697374656e7420746f6b656e0000000000000000000000000000000000602082015250565b600061377d602f83612353565b915061378882613721565b604082019050919050565b600060208201905081810360008301526137ac81613770565b9050919050565b600081519050919050565b600082825260208201905092915050565b60006137da826137b3565b6137e481856137be565b93506137f4818560208601612364565b6137fd81612397565b840191505092915050565b600060808201905061381d6000830187612498565b61382a6020830186612498565b6138376040830185612581565b818103606083015261384981846137cf565b905095945050505050565b600081519050613863816122b9565b92915050565b60006020828403121561387f5761387e612283565b5b600061388d84828501613854565b91505092915050565b7f4552433732313a206d696e7420746f20746865207a65726f2061646472657373600082015250565b60006138cc602083612353565b91506138d782613896565b602082019050919050565b600060208201905081810360008301526138fb816138bf565b9050919050565b7f4552433732313a20746f6b656e20616c7265616479206d696e74656400000000600082015250565b6000613938601c83612353565b915061394382613902565b602082019050919050565b600060208201905081810360008301526139678161392b565b905091905056fe4142434445464748494a4b4c4d4e4f505152535455565758595a6162636465666768696a6b6c6d6e6f707172737475767778797a303132333435363738392b2fa26469706673582212204d25fdde82eb25e080f1952184255a148ae4614f1d80d80aac2570462026f02b64736f6c634300080a00333c73766720786d6c6e733d27687474703a2f2f7777772e77332e6f72672f323030302f73766727207072657365727665417370656374526174696f3d27784d696e594d696e206d656574272076696577426f783d273020302033353020333530273e3c7374796c653e2e62617365207b2066696c6c3a2077686974653b20666f6e742d66616d696c793a2073657269663b20666f6e742d73697a653a20323470783b207d3c2f7374796c653e3c726563742077696474683d273130302527206865696768743d2731303025272066696c6c3d27626c61636b27202f3e3c7465787420783d273530252720793d273530252720636c6173733d27626173652720646f6d696e616e742d626173656c696e653d276d6964646c652720746578742d616e63686f723d276d6964646c65273e",
  "linkReferences": {},
  "deployedLinkReferences": {}
}